:020000040800F2
:10000000304A002455030008014600083141000829
:10001000FD4500080B0A00085575000800000000A7
:10002000000000000000000000000000870300083E
:100030002D0A000800000000330400082D670008A6
:100040008F0300088F0300088F0300088F03000848
:100050008F0300088F0300088F0300088F03000838
:100060008F0300088F0300088F0300088F03000828
:100070008F0300088F0300088F0300088F03000818
:100080008F0300088F0300088F0300088F03000808
:100090008F0300088F0300088F0300088F030008F8
:1000A0008F0300088F0300088F0300088F030008E8
:1000B0008F0300088F0300088F0300088F030008D8
:1000C0008F0300088F0300088F0300088F030008C8
:1000D0008F030008B57400080D7500088F03000831
:1000E0008F0300088F030008000000008F03000842
:1000F0008F0300088F0300088F0300088F03000898
:100100008F0300088F0300088F0300088F03000887
:100110008F0300088F0300088F0300088F03000877
:100120008F0300088F0300088F0300088F03000867
:100130008F0300088F0300088F0300088F03000857
:1001400000000000000000000000000000000000AF
:100150008F0300088F0300088F0300088F03000837
:100160008F0300088F0300088F0300088F03000827
:100170008F0300088F0300088F03000800000000B1
:100180008F0300088F0300088F0300088F03000807
:100190008F0300088F0300088F0300088F030008F7
:1001A0008F0300088F0300088F0300088F030008E7
:1001B0008F0300088F0300088F0300088F030008D7
:1001C0008F0300088F0300088F0300088F030008C7
:1001D0008F0300088F0300088F0300088F030008B7
:1001E0008F0300088F0300088F0300088F030008A7
:1001F0008F0300088F0300088F0300088F03000897
:100200008F0300088F0300088F0300088F03000886
:100210008F0300088F0300088F0300088F03000876
:100220008F0300088F0300088F0300080000000000
:100230008F0300088F030008000000008F030008F0
:100240008F0300088F0300088F0300088F03000846
:100250008F0300088F0300088F0300088F03000836
:100260008F0300088F0300088F0300088F03000826
:100270008F0300088F0300088F03000800000000B0
:100280008F030008000000008F030008000000003A
:10029000000000008F03000800F002F800F04AF8A8
:1002A0000AA090E8000C82448344AAF10107DA45D1
:1002B00001D100F03FF8AFF2090EBAE80F0013F0D9
:1002C000010F18BFFB1A43F00103184764820000B6
:1002D00084820000103A24BF78C878C1FAD8520747
:1002E00024BF30C830C144BF04680C6070470000B0
:1002F0000023002400250026103A28BF78C1FBD82F
:10030000520728BF30C148BF0B607047642900F016
:10031000A581752900F0A281782900F0DB8163298D
:1003200000F06A82002070471FB507F0DDFF1FBD97
:1003300010B510BD00F09EFA1146FFF7F5FF07F06B
:10034000A3FC00F0BCFA03B4FFF7F2FF03BC07F014
:100350000DFB000011488047DFF84400016841F4BC
:1003600070010160BFF34F8FDFF83800016821F0A2
:1003700040410160BFF36F8F0B480047FEE7FEE787
:10038000FEE7FEE7FEE7FEE7FEE7FEE7FEE7FEE745
:1003900006480749074A084B704700004D670008A8
:1003A00088ED00E034EF00E099020008303E0024C0
:1003B000304A00243040002430400024EFF309810B
:1003C00041B1F1EE101A40F8041D20ED200A294930
:1003D0000A6810607047B0EC200A02C8E1EE101AFB
:1003E00025490A6810607047EFF3108072B67047B5
:1003F00080F31088704721484FF0FF010170002002
:1004000080F309881E48016881F308881D4801218E
:1004100001701D484FF08051016062B6FEE71A4836
:100420004FF080510160704717484FF080510160D4
:10043000704772B6EFF3098028B1203880E8F00FDA
:100440000C490968086000B5104880475DF804EB66
:100450000F4810490A780270064807490A68026086
:10046000106890E8F00F203080F309884EF0F40E09
:1004700062B67047640000246C00002422ED00E0A6
:10048000980000245E00002404ED00E01D510008E7
:10049000530000245400002453EA020C00F0698049
:1004A0002DE9F04B4FF00006002B1FBFB3FA83F588
:1004B00003FA05F424FA05F65E4012BF1643B2FAB9
:1004C00082F502FA05F4C5F120051EBF22FA05FCEB
:1004D00044EA0C04203556EA044C4FEA144418BF91
:1004E000641C4FF000084FF00009904271EB030CC0
:1004F00039D3002919BFB1FA81F701FA07F6B0FA2A
:1005000080F700FA07F6C7F120071EBF20FA07FCA4
:1005100046EA0C062037B6FBF4FCA7EB0507103FB4
:1005200007F01F0BCBF120060CFA0BFB2CFA06F69A
:1005300044BFB3460026202FA4BF5E464FF0000BF9
:100540005BEA060C08BF4FF0010B19EB0B09ABFB84
:10055000027C48EB0608C01B06FB02CC0BFB03CC5D
:1005600071EB0C01C1E70B46024641464846BDE827
:10057000F08B13B54FF000004FF00001AFF3008097
:10058000BDE81C40704700000FB4044910B503AA31
:10059000029800F03DF910BC5DF814FB2000002427
:1005A0002DE9F0410E460446002020622046E16815
:1005B000884730B3252805D0D4E901219047206A27
:1005C000401CF2E7E168204600278847050018D064
:1005D000A5F14100192802D820354FF400673246B2
:1005E000294620462760FFF791FE40B1012804D03C
:1005F000F61D26F007060836D8E7361DD6E728464A
:10060000DAE7206ABDE8F08170B50C460546012A9C
:1006100005D02878800600D5EA69002302E001238E
:1006200005E05B1C934202D2E05C0028F9D1A86986
:10063000E618C01AA861286A184428622846AFF351
:10064000008004E0D5E9012114F8010B9047B44281
:10065000F8D32846AFF3008070BD00002DE9F041CB
:100660000646002410687529314616A510D0AFF350
:100670000080002802DA404213A507E031688A07AB
:1006800001D512A502E0490704D511A5012401E016
:10069000AFF3008000210A2206F1240709E0B0FB35
:1006A000F2FCB0FBF2F302FB1C0030307854184629
:1006B000491C0028F3D123462A463046BDE8F041C4
:1006C00000F037B8000000002D0000002B000000F3
:1006D0002000000070B504460D4621461068AFF3B7
:1006E00000802188090502D50F4A7A4402E00E4AAB
:1006F0007A440E32002104F1240305E000F00F06D5
:100700000009965D5E54491C0028F7D1207800232B
:10071000000704D5702D02D009B102231132204602
:10072000BDE8704000F005B8177E000070477047C4
:1007300070472DE9F0470D4699469246044600F170
:1007400024080168880604D5E06921F010012160C1
:1007500000E00120A84201DD471B00E00027A1695D
:100760007A1902EB0900081AA0612078C00602D4A9
:100770002046AFF30080002608E0D4E901211AF8F2
:1007800006009047206A401C761C20624E45F4DB30
:100790002078C0060AD52046AFF3008006E0D4E9F1
:1007A000012130209047206A401C2062381EA7F1AA
:1007B0000107F4DC07E0D4E9012118F805009047AF
:1007C000206A401C2062281EA5F10105F3DC2046AA
:1007D000AFF300802078000602D50220BDE8F08744
:1007E0000120FBE710B5436913B1AFF3008001E0CE
:1007F000FFF70AFF012010BD127800F124010A70F2
:1008000000224A700122EDE711684FF0FF32E9E75C
:10081000074B70B50D467B4400F011F8044628469E
:1008200000F020F810B14FF0FF3070BD204670BDD1
:100830006373000001694A1C02610878704700B5C3
:100840008FB0CDE901310021059105497944CDE909
:10085000031011466846FFF7A3FE0FB000BD00006D
:10086000E5FFFFFF007B00F0800070470048704705
:10087000CC3D00247546FFF7F9FFAE4605006946FA
:10088000534620F00700854618B020B5FFF780FDDD
:10089000BDE820404FF000064FF000074FF0000881
:1008A0004FF0000B21F00701AC46ACE8C009ACE802
:1008B000C009ACE8C009ACE8C0098D46704710B566
:1008C0000446AFF300802046BDE81040FFF73BBD73
:1008D00010B5FF2000F028F80446552C01D1002067
:1008E00010BD5521FF2000F05DF8FF2000F01CF83E
:1008F0000446552C01D10020F2E70120F0E710B5A5
:1009000003F042FC10BD70B506460C46154608E0E3
:100910003046721C96B200F007F804F8010B681E0E
:1009200085B2002DF4D170BD70B50446002603F0E9
:10093000F5FC2546E11704EB11610912A02202EB38
:100940004101C8B203F0ACFC03F03CFDE11704EB3D
:1009500011610912A4EB0121C8B203F0A1FC03F05C
:1009600031FD03F0DBFCA12003F09AFC03F02AFD2B
:10097000002003F05FFC064603F0FAFC304670BD31
:1009800070B505460C46164606E02178284600F06C
:1009900009F8681C85B2641C301EA6F101018EB2F4
:1009A000F3D170BD70B504460E4603F0B7FC254682
:1009B000E11704EB11610912A02202EB4101C8B258
:1009C00003F06EFC03F0FEFCE11704EB1161091269
:1009D000A4EB0121C8B203F063FC03F0F3FC304642
:1009E00003F05EFC03F0EEFC03F0C2FC0A2007F00B
:1009F00063F870BD70477047704770477047704725
:100A0000704710B500F0B6FF10BD00BFFEE7000054
:100A100010B505F0D1FD05F081FD0348006840F0F8
:100A200004000149086010BD9CEF00E07047000021
:100A30002DE9F04188B004460D4616461F46DDF804
:100A40003880234800F073FB2248214908600020C9
:100A500088600846C0F80C800021017441748174DC
:100A600044618561C661076241638163C16301219D
:100A7000016404214164002101658165C165012192
:100A80000166002141660421816600F043FC18B133
:100A9000012008B0BDE8F081002000900190022004
:100AA00002900120039000200490059069460848B8
:100AB00000F0E8FA08B10220EBE7054800F0CEFDAF
:100AC00000220121024800F043FA0020E1E7000083
:100AD0000427002400A0004010B504462346064A1F
:100AE0004021064800F036FB08B1002010BD024846
:100AF000C068C0F30740F9E7A027002404270024BA
:100B000070B504460D4612200A490860002048606E
:100B100088600846C5600020086148618861C86136
:100B200008622246044800F069FA08B1012070BD4D
:100B30000020FCE7C82700240427002410B5014644
:100B4000486BC8660868D0F884004FF6FC73984379
:100B5000CB6E40EA83000B68C3F884000868D0F8C5
:100B6000840020F47F03088F43EA00400B68C3F839
:100B70008400CB6E886B03440B670868D0F888004C
:100B80004FF6FC7398430B6F40EA83000B68C3F881
:100B900088000868D0F8880020F47F03888F43EA33
:100BA00000400B68C3F888000B6FC86B03EB400371
:100BB0004B670868D0F8A0004FF6FC7398434B6F62
:100BC00040EA83000B68C3F8A0000868D0F8A000D2
:100BD00020F4FE034020405A43EA00400B68C3F86B
:100BE000A000D1E910404B6F04FB00338B6708680D
:100BF000D0F8B00020F0FC03886F43EA80000B6857
:100C0000C3F8B0000868D0F8B00020F4FE03B1F8D3
:100C1000480043EA00400B68C3F8B000D1E9124035
:100C20008B6F04FB0033CB670868D0F8AC0020F072
:100C3000FC03C86F43EA80000B68C3F8AC00D1E93D
:100C40001440CB6F04FB0033802043500868D0F879
:100C5000F0004FF6FC73984380235B5840EA830012
:100C60000B68C3F8F0000868D0F8F00020F47C139B
:100C7000B1F8580043EA00400B68C3F8F000802048
:100C80004358886D03EB4003842043500868D0F834
:100C9000C00020F0FC038420405843EA80000B6829
:100CA000C3F8C0000868D0F8C00020F47C13B1F885
:100CB0005C0043EA00400B68C3F8C000842043583E
:100CC000CC6D886E04FB0033882043500868D0F850
:100CD000C00020F07C5391F8600043EA00600B688C
:100CE000C3F8C000294B486B03EB8000C866CB6E8D
:100CF000886B03EB80030B670B6FC86B03EBC003C0
:100D00004B67D1E9100358434B6F03EB80038B67AC
:100D1000D1E9120358438B6F03EB8003CB67D1E912
:100D200014035843CB6F03EB800380204350435898
:100D3000886D03EBC003842043508B6EC86D58430D
:100D400084235B5803EB8003882043508B6E086E2E
:100D5000584388235B5803EB80039020435040584E
:100D60000B4B984207D9D1F8980040F02000C1F809
:100D70009800012010BDCA6E02E000201060121D14
:100D8000902040589042F8D80020F3E700AC004093
:100D9000FCB500402DE9F041054614461F46486861
:100DA00048B9D1F80880086940EA0800B1F8008025
:100DB00040EA88460AE0086940F08040D1F808809F
:100DC00040EA0800D1F8008040EA080691F8208047
:100DD000C86940EA0860D1F8188040EA0800D1F8F4
:100DE000148040EA0800D1F80C8040EA080CA86E94
:100DF0007843D5F8848008EB800340C343F804CBE4
:100E0000002211E0D01C205C4FEA0068901C205C9E
:100E100048EA0048501C205C48EA002014F8028090
:100E200040EA080001C3121DDFF81480C86808EB0F
:100E3000104000789042E5D80020BDE8F081000025
:100E4000E283000810B504460CB9012010BD94F8E7
:100E50003500022803D0802060650120F6E7344980
:100E60002068884205D333492068884201D8012090
:100E700000E00020C0B1042084F835002C4920682F
:100E800088420AD32B492068884206D82068006827
:100E900020F001002168086048E02068006820F028
:100EA00001002168086041E02068006820F00E0021
:100EB000216808601E49206888420AD31D492068BD
:100EC000884206D82068006820F001002168086088
:100ED00005E02068006820F0010021680860206EAD
:100EE000006820F48070216E086094F85C10012086
:100EF000884011490860D4E919104860E06E40B19B
:100F0000E06E006820F48070E16E0860D4E91C1087
:100F1000486000BF002084F8340000BF012084F83E
:100F20003500206D10B12046216D884700208DE7E7
:100F300010000240B80402400454025803480068FC
:100F400040F001000149086070470000200400588B
:100F500010B5034693F89400012803D093F8940049
:100F600002283ED11868806D084030B91868C06DFD
:100F700040F001001C68E0650EE01868806D0840D4
:100F8000884206D11868C06D40F002001C68E06518
:100F900002E003201C68E06501F4007030B11868BD
:100FA000D0F8E00010431C68C4F8E00001F4806051
:100FB00030B11868D0F8E40010431C68C4F8E400AD
:100FC00000BF1868406D0B4C0C4020431C686065E6
:100FD0000948006840EA9170074C206000BF00207B
:100FE00010BDD3F8980040F00200C3F8980001202B
:100FF000F6E70000FFFFCF3F14A800402DE9F041C5
:1010000004460E461746706800B900E000BF94F829
:10101000940002282ED12068D0F8C00000F07C5047
:1010200040B9D4F8980040F02000C4F8980001209E
:10103000BDE8F0812068D0F8C40000F4001038B199
:10104000D4F8980040F02000C4F898000120EFE7A1
:101050002068D0F8C400C0F304452B463A46314618
:101060002046FFF797FE0120A8402168C1F8D00074
:101070000020DDE7D4F8980040F00800C4F898009C
:101080000120D5E770B5024692F89400012803D0FC
:1010900092F89400022842D1C868072800D100BF06
:1010A000086818BBC868072800D000BFC8680728B0
:1010B0000BD1088A4FF0605646EA0040CE6940EAFC
:1010C00006208E6940EA06030AE0087A80070E7B54
:1010D00040EAC6600E8A40EA06404E6940EA0603CE
:1010E000D66E486806EB8004236016E0C8680728BF
:1010F00000D000BF0E7B086940EA4673C868072825
:1011000001D18D6903E00E7A486940EA8675166F51
:10111000486806EBC00408C42560002070BDD2F802
:10112000980040F00200C2F898000120F6E710B5E0
:1011300004460CB9012010BD204600F0A9FA204653
:1011400000F040FA0020C4F8980084F8940000BF32
:10115000F1E700002DE9F04104460D461F46002648
:1011600094F89400012803D094F89400022870D1D8
:10117000402D28D12068D0F8A00000F4FE0040B92E
:10118000D4F8980040F02000C4F898000120BDE891
:10119000F0812068D0F8A40000F07F0038B9D4F8BE
:1011A000980040F02000C4F898000120EFE7206884
:1011B000D0F8A400C0F30526606C7043D4F87480A6
:1011C00008EB80013AE0412D27D12068D0F8B0002B
:1011D00000F4FE0038B9D4F8980040F02000C4F8BC
:1011E00098000120D3E72068D0F8B40000F07F0019
:1011F00038B9D4F8980040F02000C4F898000120D5
:10120000C5E72068D0F8B400C0F30526E06C704351
:10121000D4F8788008EB800110E0206DA84207D850
:10122000D4F8980040F02000C4F898000120AEE700
:10123000606D6843D4F87C8008EB8001086800F09A
:1012400080405060506828B90868C0F38A40106038
:1012500004E054E0086820F060401060086800F086
:101260000050906051F8048B08F00040106108882D
:1012700080B2D061086800F47020D060086800F483
:1012800080105061086800F4001090610868C0F395
:101290000660106201C9C00F50620B464FF0000C8F
:1012A00005E013F8010B07F8010B0CF1010CDFF856
:1012B0006080D06808EB104000786045F1D8402D80
:1012C00003D12068C0F8A86017E0412D03D1206841
:1012D000C0F8B86011E0202D06D20120A840D4F853
:1012E0000080C8F8980008E0A5F120004FF0010840
:1012F00008FA00F82068C0F89C80002047E7D4F87E
:10130000980040F00200C4F8980001203FE7000078
:10131000E283000870B5044600250CB9012070BDB9
:10132000A6492068884203D1206800F5807060607B
:10133000A068B0F5407F00D100BF206C00B100BFB5
:10134000A06C00B100BF206D00B100BF206E00B1E5
:1013500000BFD4E91710084400B100BF94F894000E
:1013600028B9002084F89500204600F039F920685B
:10137000806920F010002168886100F0F5FA0546C8
:101380000EE000F0F1FA401B0A2809D99434606895
:1013900040F001006060032004F894090120BEE7DA
:1013A0002068806900F008000828EAD02068806979
:1013B00040F001002168886100F0D6FA05460EE091
:1013C00000F0D2FA401B0A2809D99434606840F032
:1013D00001006060032004F8940901209FE7206861
:1013E000806900F001000028EAD02068806940F0A0
:1013F000020021688861207C012806D1206880696C
:1014000020F040002168886105E02068806940F094
:10141000400021688861607C012806D120688069CD
:1014200040F480402168886105E02068806920F4EC
:10143000804021688861A07C012806D120688069ED
:1014400020F480502168886105E02068806940F4BC
:101450008050216888612068806920F44070A1680C
:10146000084321688861E068012806D12068806906
:1014700040F004002168886120E0E068F0B1E06895
:10148000022815D02068806940F0800021688861BA
:101490002068006940F0100021680861E0680328B6
:1014A0000CD12068806940F020002168886105E047
:1014B0002068806940F0200021688861207E401EFD
:1014C0004106E069401E41EA0020216A491E0843A6
:1014D000A18A491E40EA01402168C861A068B0F5B0
:1014E000407F0FD1A06A401EE16A491E40EA0121F7
:1014F000206B401E41EA0011A08C401E41EA0040D2
:101500002168C860206E38B12068D0F8C000616ED4
:1015100008432168C1F8C000D4E91710084458B145
:101520002068D0F8C80020F00700254AA16E515C61
:1015300008432168C1F8C800206C58B12068D0F871
:10154000BC0020F007001E4A616C515C0843216812
:10155000C1F8BC00A06C60B12068D0F8BC0020F0DD
:101560007001174AE06C105C41EA00102168C1F874
:10157000BC00206D60B12068D0F8BC0020F4E061B0
:101580000F4A606D105C41EA00202168C1F8BC0080
:101590000A492068884205D16068806820F003000D
:1015A000616888602046FFF7C9FA0020C4F89800F7
:1015B000012084F894000020B1E6000000A0004063
:1015C000F28300080549096841F48071034A1160FB
:1015D0001146096821F480711160704794440258E3
:1015E00010B5B6B0044600BF1A48006840F48070D9
:1015F000184908600846006800F48070019000BF38
:1016000000BF00BF13480C38006840F001001149CA
:101610000C3908600846006800F00100019000BF26
:1016200000BF4FF40040029040031D9002A800F05C
:10163000ADFE4FF4C0503190022032900120339023
:1016400034900920359031A9034800F055F836B0A0
:1016500010BD0000EC44025800000258014691F809
:10166000940001280CD1022081F894000868806958
:1016700020F001000A6890610020C1F898007047CE
:10168000D1F8980040F00400C1F898000120F6E776
:101690000146002291F89400022825D1086880694B
:1016A00040F001000B6898610DE01046521C0A28BA
:1016B00009D99431486840F001004860032001F8DE
:1016C0009409012070470868806900F00100002833
:1016D000EBD00868806940F002000B689861012037
:1016E00081F894000020EDE7D1F8980040F0080060
:1016F000C1F898000120E5E7F8B502460B46002145
:10170000002600240020824D00BFFCE0012707FADC
:1017100001F61F6807EA0604B4427CD15F68022F15
:1017200002D05F68122F1AD14FEAD10C02F12007C4
:1017300057F82C004F074FEAD76C0F2707FA0CF722
:10174000B8434FEA417C4FEADC6C1F6907FA0CF79B
:1017500038434FEAD10C02F1200747F82C001068FB
:101760004FEA410C032707FA0CF7B8431F7907F03B
:1017700003074FEA410C07FA0CF7384310605F6823
:10178000012F08D05F68022F05D05F68112F02D0AB
:101790005F68122F17D190684FEA410C032707FAB0
:1017A0000CF7B8434FEA410CDF6807FA0CF73843EF
:1017B0009060506801278F40B8431F79C7F3001726
:1017C0008F4038435060D0684FEA410C032707FA36
:1017D0000CF7B8434FEA410C9F6807FA0CF73843FF
:1017E000D0605F6807F08057B7F1805F95D100BF88
:1017F000484F3F6847F00207DFF818C1CCF8007087
:1018000067463F6807F00207009700BF00BF424FDE
:101810004FEA910C00E075E057F82C008F074FEA73
:10182000177C0F2707FA0CF7B8433C4FBA4201D197
:1018300000272DE03A4FBA4201D1012728E0394F65
:10184000BA4201D1022723E0374FBA4201D1032720
:101850001EE0364FBA4201D1042719E0344FBA4294
:1018600001D1052714E0334FBA4201D106270FE01A
:10187000314FBA4201D107270AE0304FBA4201D1B5
:10188000082705E02E4FBA4201D1092700E00A27B8
:101890004FEA817C4FEA1C7C07FA0CF738431E4F55
:1018A0004FEA910C47F82C002868A0435F6807F4C2
:1018B0008037B7F5803F00D1204328606868A04397
:1018C0005F6807F40037B7F5003F00D12043686038
:1018D0004FF0B0473868A0435F6807F48017B7F54A
:1018E000801F00D120434FF0B04738607868A04394
:1018F0005F6807F40017B7F5001F00D120434FF0D1
:10190000B0477860491C1029FFF400AFF8BD000013
:1019100080000058F444025808040058000002589F
:101920000004025800080258000C02580010025827
:101930000014025800180258001C025800200258D7
:1019400000240258024613690B400BB1012000E04D
:101950000020704742694A40426170470AB10183E2
:1019600000E04183704700000148006870470000B4
:101970002800002403480068034909780844014905
:1019800008607047280000243000002410B50320B0
:1019900000F07EF80F2000F007F808B1012010BD1C
:1019A00000F028F80020FAE770B504460E480078E9
:1019B0004FF47A71B1FBF0F00C490968B1FBF0F516
:1019C000284602F087F808B1012070BD102C07D21C
:1019D00000222146501E00F01EF80548046001E078
:1019E0000120F2E70020F0E730000024100000247E
:1019F0002C000024704701460846002809DB00F04F
:101A00001F0301229A4043099B0003F1E023C3F81E
:101A1000002100BF70472DE9F05F80460D46164655
:101A200005F088FF074639462A46334601F007008D
:101A3000C0F1070ABAF1040F02D94FF0040A01E01D
:101A4000C0F1070AD14600F1040ABAF1070F02D229
:101A50004FF0000A01E0A0F1030AD4464FF0010A5A
:101A60000AFA09FAAAF1010A0AEA020A0AFA0CFABF
:101A70004FF0010B0BFA0CFBABF1010B0BEA030B64
:101A80004AEA0B042146404605F05CFFBDE8F09FA2
:101A900000BF00F00702064B19684FF6FF0319401C
:101AA000044B0B4343EA0221014B196000BF70470E
:101AB0000CED00E00000FA052DE9F84304460D4660
:101AC00016460127FFF750FF8046A86900B100BF06
:101AD000E86900B100BF286A00B100BF00BF94F8F8
:101AE0004000012802D10220BDE8F883012084F8DB
:101AF000400000BF94F84100012828D10020606414
:101B0000022084F84100434600222021204600960E
:101B100004F008FB0746DFB900222946204604F0FE
:101B200067F9686A78B94346012202212046009687
:101B300004F0F8FA07465FB902202168C860012066
:101B400084F8410004E0012084F8410000E002270D
:101B500000BF002084F8400000BF3846C4E7000002
:101B6000F8B504460125FFF7FFFE06460CB9012033
:101B7000F8BD206A402800D000BF00BF94F84000A4
:101B8000012801D10220F3E7012084F8400000BFC2
:101B900094F8410050B9002084F84000204600F03D
:101BA0005DF841F28831204600F027F9206800688E
:101BB00020F47061A068401E4FF4706292FAA2F2A5
:101BC000B2FA82F29040014320680160A06C334673
:101BD000002220210090204604F0A4FA054695BB7F
:101BE0004FF07F4191FAA1F1B1FA81F1606888402C
:101BF000E1680843E1690843216A084321680968EC
:101C0000144A11400843216808604FF4F81191FA12
:101C1000A1F1B1FA81F12069884061690843A169A5
:101C20000843216849680C4A11400843216848600C
:101C30002068006840F001002168086000206064AE
:101C4000012084F8410000BF002084F8400000BF5C
:101C500028468DE72FFFFF00FEF8E0FF10B586B0A5
:101C6000044600BF2948006840F4804027490860C6
:101C70000846006800F48040009000BF00BF00BF2D
:101C800022480C30006840F0020020490C31086006
:101C90000846006800F00200009000BF00BF00BFCF
:101CA0000846006840F0200008600846006800F020
:101CB0002000009000BF00BF402001900220029051
:101CC00001200390032004900A20059001A91048E8
:101CD000FFF712FD4FF440700190002003900320A5
:101CE000049001A90B48FFF707FD0420019009208B
:101CF000059001A90648FFF7FFFCC020019001A94B
:101D00000448FFF7F9FC06B010BD0000D4440258A7
:101D100000040258001402582DE9F84F04460E46FC
:101D200017460025FFF720FE80462068D0F818905F
:101D3000206800F1200A00BF94F84000012802D179
:101D40000220BDE8F88F012084F8400000BF94F81D
:101D50004100012849D100206064002E3FD022209C
:101D600084F8410020680069401CA0632068006975
:101D7000401C606326632068406920F0406040F0AA
:101D80008060216848612068C0F8189012E04346DE
:101D9000012206212046009704F0C4F9054605B14A
:101DA0000BE09AF80010226B501C20631170A06B9E
:101DB000401EA063A06B0028E9D100BF5DB9434677
:101DC000012202212046009704F0ACF9054615B91E
:101DD00002202168C860012084F8410006E0606CA0
:101DE00040F008006064012500E0022500BF0020EB
:101DF00084F8400000BF2846A3E7816470472DE9BE
:101E0000F84304460E4617460025FFF7ADFD804611
:101E1000206800F1200900BF94F84000012802D199
:101E20000220BDE8F883012084F8400000BF94F848
:101E30004100012844D100206064002E3AD01220D5
:101E400084F8410020680069401CE0622068006955
:101E5000401CA06266622068406920F040602168F2
:101E6000486112E04346012204212046009704F015
:101E700059F9054605B10BE0616A481C60620878B3
:101E800089F80000E06A401EE062E06A0028E9D1BB
:101E900000BF5DB94346012202212046009704F0AD
:101EA00041F9054615B902202168C860012084F86F
:101EB000410006E0606C40F008006064012500E02D
:101EC000022500BF002084F8400000BF2846A8E794
:101ED00010B501F067F90949096801F470614FF420
:101EE000807292FAA2F2B2FA82F2D140044A515CB4
:101EF000C840044908600846006810BD18440258EC
:101F0000728300081000002410B501F003F907499E
:101F1000096801F07001102292FAA2F2B2FA82F27C
:101F2000D140034A515CC84010BD00002044025813
:101F30007283000870B501460022012000230024AE
:101F40009FED811AB0EE410A9FED7F1AF0EE410A33
:101F50007E4D2D6805F003027C4D2D68C5F30530DC
:101F60007A4D2D1D2D6805F01003784D14352D6820
:101F7000C5F3CC0515FB03F501EE105AB8EE411A76
:101F8000B0EE410A22B1012A4DD0022A7DD169E08A
:101F90006E4D283D2D68C5F340152DB36B4D283D82
:101FA0002D68C5F3C1066A4D25FA06F4B4FBF0F5B9
:101FB00001EE105AF8EE411A9FED661A80EE012AE2
:101FC000624D10352D68C5F3080501EE105AB8EEC4
:101FD000411A32EE011AB7EE002A31EE021A21EE52
:101FE000811AF0EE410A1DE0594DB5FBF0F501EE06
:101FF000105AF8EE411A9FED571A80EE012A534D00
:1020000010352D68C5F3080501EE105AB8EE411AD7
:1020100032EE011AB7EE002A31EE021A21EE811AD1
:10202000F0EE410A5EE04C4DB5FBF0F501EE105AC2
:10203000B8EE412A9FED471AC0EE011A434D103504
:102040002D68C5F3080501EE105AB8EE411A31EEBD
:10205000811AF7EE001A31EE211A22EE011AF0EE83
:10206000410A3FE03D4DB5FBF0F501EE105AF8EEA8
:10207000411A9FED381A80EE012A344D10352D6833
:10208000C5F3080501EE105A00E00CE0B8EE411A65
:1020900032EE011AB7EE002A31EE021A21EE811A51
:1020A000F0EE410A1EE02C4DB5FBF0F501EE105AA2
:1020B000B8EE412A9FED271AC0EE011A234D1035C4
:1020C0002D68C5F3080501EE105AB8EE411A31EE3D
:1020D000811AF7EE001A31EE211A22EE011AF0EE03
:1020E000410A00BF00BF194D10352D68C5F34625C4
:1020F0006D1C01EE105AB8EE411AC0EE811ABCEE0A
:10210000E11A81ED001A114D10352D68C5F3064511
:102110006D1C01EE105AB8EE411AC0EE811ABCEEE9
:10212000E11A81ED011A094D10352D68C5F30665D8
:102130006D1C01EE105AB8EE411AC0EE811ABCEEC9
:10214000E11A81ED021A70BD000000002844025817
:102150000090D0030000004600093D0040787D015A
:1021600070B5014600220120002300249FED811A52
:10217000B0EE410A9FED7F1AF0EE410A7E4D2D68C8
:1021800005F003027C4D2D68C5F305507A4D2D1DD9
:102190002D6805F48073784D1C352D68C5F3CC058A
:1021A00015FB03F501EE105AB8EE411AB0EE410AE4
:1021B00022B1012A4DD0022A7DD169E06E4D283D21
:1021C0002D68C5F340152DB36B4D283D2D68C5F323
:1021D000C1066A4D25FA06F4B4FBF0F501EE105A7B
:1021E000F8EE411A9FED661A80EE012A624D18350D
:1021F0002D68C5F3080501EE105AB8EE411A32EE0B
:10220000011AB7EE002A31EE021A21EE811AF0EE21
:10221000410A1DE0594DB5FBF0F501EE105AF8EEFC
:10222000411A9FED571A80EE012A534D18352D683B
:10223000C5F3080501EE105AB8EE411A32EE011A44
:10224000B7EE002A31EE021A21EE811AF0EE410AB1
:102250005EE04C4DB5FBF0F501EE105AB8EE412AA8
:102260009FED471AC0EE011A434D18352D68C5F38E
:10227000080501EE105AB8EE411A31EE811AF7EE58
:10228000001A31EE211A22EE011AF0EE410A3FE067
:102290003D4DB5FBF0F501EE105AF8EE411A9FEDF9
:1022A000381A80EE012A344D18352D68C5F308051B
:1022B00001EE105A00E00CE0B8EE411A32EE011ABD
:1022C000B7EE002A31EE021A21EE811AF0EE410A31
:1022D0001EE02C4DB5FBF0F501EE105AB8EE412A88
:1022E0009FED271AC0EE011A234D18352D68C5F34E
:1022F000080501EE105AB8EE411A31EE811AF7EED8
:10230000001A31EE211A22EE011AF0EE410A00BF46
:1023100000BF194D18352D68C5F346256D1C01EE1B
:10232000105AB8EE411AC0EE811ABCEEE11A81EDE6
:10233000001A114D18352D68C5F306456D1C01EEC8
:10234000105AB8EE411AC0EE811ABCEEE11A81EDC6
:10235000011A094D18352D68C5F306656D1C01EE8F
:10236000105AB8EE411AC0EE811ABCEEE11A81EDA6
:10237000021A70BD00000000284402580090D003EB
:102380000000004600093D0040787D012DE9F04144
:10239000044600250026206800F00060B0F1006FC0
:1023A00030D1606E48B1B0F5801F0DD0B0F5001F80
:1023B00010D0B0F5401F15D113E0F948006840F483
:1023C0000030F74908600FE00221201D03F0D0FE25
:1023D000054609E0022104F1240003F061FF0546EF
:1023E00002E001E0012500BF00BF55B9EC482430F0
:1023F000006820F44010616E0843E9492431086008
:1024000000E02E43208800F48070B0F5807F2DD14D
:10241000606D05281AD2DFE800F0030A10171800D3
:10242000DF48006840F40030DD49086010E000211A
:10243000201D03F09DFE05460AE0002104F1240062
:1024400003F02EFF054603E002E001E0012500BF96
:1024500000BF55B9D2482430006820F00700616DF4
:102460000843CF492431086000E02E43208800F45F
:102470000070B0F5007F33D1A06D802817D003DC49
:1024800040B140281CD10CE0C02817D0B0F5807FA7
:1024900016D114E0C248006840F40030C04908601A
:1024A00010E00021201D03F063FE05460AE0002134
:1024B00004F1240003F0F4FE054603E002E001E02D
:1024C000012500BF00BF55B9B5482430006820F48D
:1024D000E070A16D0843B2492431086000E02E434A
:1024E000208800F48060B0F5806F38D1D4F8A40063
:1024F000B0F5800F19D004DC50B1B0F5001F1DD12C
:102500000DE0B0F5C00F17D0B0F5000F16D114E0F4
:10251000A348006840F40030A149086010E00021A1
:10252000201D03F025FE05460AE0002104F12400E9
:1025300003F0B6FE054603E002E001E0012500BF1E
:1025400000BF5DB996482C30006820F46000D4F8D4
:10255000A410084392492C31086000E02E432088E3
:1025600000F40060B0F5006F38D1D4F8A800B0F1E5
:10257000007F19D004DC50B1B0F1807F1DD10DE097
:10258000B0F1407F17D0B0F1806F16D114E08448CD
:10259000006840F400308249086010E00021201DEE
:1025A00003F0E6FD05460AE0002104F1240003F0F3
:1025B00077FE054603E002E001E0012500BF00BF11
:1025C0005DB977482C30006820F0E060D4F8A8109E
:1025D000084373492C31086000E02E43206800F066
:1025E0000070B0F1007F27D1A06CA0B1102804D0FA
:1025F000202809D030280FD10CE06948006840F449
:1026000000306749086009E00221201D03F0B0FD99
:10261000054603E002E001E0012500BF00BF55B917
:102620005F482030006820F03000A16C08435C490E
:102630002031086000E02E43208800F48050B0F57F
:10264000805F36D1E06DB0F5005F19D004DC50B189
:10265000B0F5805F1DD10DE0B0F5405F17D0B0F54B
:10266000804F16D114E04E48006840F400304C49C9
:10267000086010E00021201D03F07AFD05460AE005
:10268000002104F1240003F00BFE054603E002E004
:1026900001E0012500BF00BF55B941482430006862
:1026A00020F4E040E16D08433D492431086000E03A
:1026B0002E43208800F40050B0F5005F34D1206E26
:1026C000B0F5403F1DD007DC68B1B0F5803F0BD0BE
:1026D000B0F5003F18D10DE0B0F5802F12D0B0F565
:1026E000A02F11D10FE011E00121201D03F040FDCA
:1026F00005460BE0012104F1240003F0D1FD05465D
:1027000004E003E002E001E0012500BF00BF55B98D
:1027100023482430006820F4E020216E084320493B
:102720002431086000E02E43208800F48040B0F59A
:10273000804F38D1D4F8AC00B0F1405F1DD007DC39
:1027400068B1B0F1805F0BD0B0F1005F18D10DE03F
:10275000B0F1804F12D0B0F1A04F11D10FE011E0D5
:102760000121201D03F004FD05460BE0012104F1C9
:10277000240003F095FD054604E003E002E001E0DB
:10278000012500BF00BF6DB905482C30006820F05E
:10279000E040D4F8AC10084301492C31086002E055
:1027A0002C4402582E43208800F40040B0F5004F1E
:1027B00026D1E06E98B1B0F1805F03D0B0F1005F38
:1027C0000ED106E0FA48006840F40030F84908608D
:1027D00008E00121201D03F0CBFC054602E001E0EA
:1027E000012500BF00BF55B9F1482430006820F032
:1027F0004050E16E0843EE492431086000E02E436A
:10280000206800F08070B0F1807F27D1606CA0B1AB
:10281000012804D0022809D003280FD10CE0E44895
:10282000006840F40030E249086009E00221201D00
:1028300003F09EFC054603E002E001E0012500BF35
:1028400000BF55B9DA482030006820F00300616C01
:102850000843D7492031086000E02E43206800F487
:102860008000B0F5800F7DD1D248006840F48070C0
:10287000D0490860FFF778F8074606E0FFF774F8DC
:10288000C01B642801D9032505E0CA48006800F48C
:1028900080700028F2D000BF8DBBC548443000686E
:1028A00000F44070B4F8B01001F44071884214D0C4
:1028B000BF484430006820F44078BD484430006888
:1028C00040F48030BA49443108600846006820F47A
:1028D000803008600846C0F80080D4F8B000B0F539
:1028E000807F15D1FFF740F8074609E0FFF73CF875
:1028F000C01B41F28831884202D9032507E038E045
:10290000AB4844300068C0F340000028EED000BF60
:102910004DBB00BFB4F8B00000F44070B0F5407F8C
:102920000ED1A3481C38006820F47C51A24AD4F888
:10293000B000104041EA10109D491C39086007E0C2
:102940009B481C38006820F47C5099491C39086069
:10295000974844300068B4F8B010C1F30B01084345
:10296000934901E006E002E04431086002E02E43B2
:1029700000E02E43207800F0010068B3A06F182813
:1029800019D005DC48B1082808D0102816D10BE072
:10299000202811D0282811D10FE011E00121201D9D
:1029A00003F0E6FB05460BE0012104F1240003F0EF
:1029B00077FC054604E003E002E001E0012500BFEA
:1029C00000BF55B97A482830006820F03800A16F60
:1029D000084377492831086000E02E43207800F052
:1029E0000200022828D1606F062815D2DFE800F027
:1029F00003040A11121311E00121201D03F0B8FB9A
:102A000005460BE0012104F1240003F049FC0546D2
:102A100004E003E002E001E0012500BF00BF55B97A
:102A200063482830006820F00700616F0843604960
:102A30002831086000E02E43207800F004000428CC
:102A40002AD1D4F89000062815D2DFE800F003045C
:102A50000A11121311E00121201D03F089FB054624
:102A60000BE0012104F1240003F01AFC054604E008
:102A700003E002E001E0012500BF00BF5DB94C4862
:102A80002C30006820F00700D4F890100843484923
:102A90002C31086000E02E43207800F02000202830
:102AA00036D1D4F88C00B0F1405F1DD007DC68B19E
:102AB000B0F1805F0BD0B0F1005F18D10DE0B0F144
:102AC000804F12D0B0F1A04F11D10FE011E00021E2
:102AD000201D03F04DFB05460BE0022104F124000C
:102AE00003F0DEFB054604E003E002E001E001251F
:102AF00000BF00BF5DB92E482830006820F0E040DC
:102B0000D4F88C1008432A492831086000E02E438D
:102B1000207800F04000402836D1D4F89800B0F575
:102B2000406F1DD007DC68B1B0F5806F0BD0B0F5F9
:102B3000006F18D10DE0B0F5805F12D0B0F5A05F46
:102B400011D10FE011E00021201D03F011FB05461B
:102B50000BE0022104F1240003F0A2FB054604E08F
:102B600003E002E001E0012500BF00BF5DB91048AD
:102B70002C30006820F4E050D4F8981008430C4939
:102B80002C31086000E02E43207800F0800080287F
:102B90003BD1D4F89C00B0F5C04F24D00EDCA0B1DE
:102BA000B0F5005F12D0B0F5804F1FD114E00000E7
:102BB0002C44025800480258FFFCFF0FB0F5004FAC
:102BC00012D0B0F5204F11D10FE011E00021201DEF
:102BD00003F0CEFA05460BE0022104F1240003F0D5
:102BE0005FFB054604E003E002E001E0012500BFD1
:102BF00000BF4DB9B248006820F46040D4F89C1082
:102C00000843AF49086000E02E43207800F0080038
:102C1000082816D1D4F88000B0F5805F06D10221D3
:102C200004F1240003F03CFB06430AE0A448001F23
:102C3000006820F44050D4F880100843A049091FD0
:102C40000860207800F01000102814D1D4F8940007
:102C5000B0F5807F06D1022104F1240003F020FBAF
:102C6000064308E09648006820F44070D4F89410B9
:102C7000084393490860206800F40020B0F5002F55
:102C800026D1D4F8A00030B1B0F5803F09D0B0F51E
:102C9000003F0ED10CE00021201D03F069FA05462B
:102CA00009E0022104F1240003F0FAFA054602E0EB
:102CB00001E0012500BF00BF4DB98148006820F444
:102CC0004030D4F8A01008437D49086000E02E434E
:102CD000206800F48020B0F5802F2DD1D4F8840036
:102CE000B0F5801F06D0B0F5001F0CD0B0F5401F26
:102CF00011D10FE072482C38006840F40030704960
:102D00002C39086009E0012104F1240003F0C8FA1D
:102D1000054602E001E0012500BF00BF5DB968483B
:102D2000001F006820F44010D4F884100843644960
:102D3000091F086000E02E43206800F48030B0F5E1
:102D4000803F24D1E06C18B1B0F5803F0FD108E08E
:102D50005B482C38006840F4003059492C39086031
:102D600007E00221201D03F003FA054601E00125DA
:102D700000BF00BF55B952480C38006820F48030BD
:102D8000E16C08434E490C39086000E02E4320688E
:102D900000F00050B0F1005F05D1022104F12400E1
:102DA00003F07EFA0643206800F40030B0F5003FDF
:102DB00027D1E06FA0B1B0F5807F06D0B0F5007FDD
:102DC0000CD0B0F5407F0CD109E03D482C380068AC
:102DD00040F400303A492C39086004E003E002E096
:102DE00001E0012500BF00BF55B93548001F00684C
:102DF00020F44070E16F08433149091F086000E08A
:102E00002E43206800F48010B0F5801F09D12C48B3
:102E10000838006820F00040216F0843284908392D
:102E20000860206800F08050B0F1805F0AD124482B
:102E30004838006820F48040D4F8B4100843204992
:102E400048390860206800F40010B0F5001F09D16F
:102E50001B480838006820F08070A16E08431849AC
:102E600008390860206800F08040B0F1804F11D12F
:102E700000BF13484838006820F400401049483922
:102E8000086008460068D4F8B81008430C4948396F
:102E9000086000BF206800F00040B0F1004F09D189
:102EA00007480C38006820F04050216D0843044961
:102EB0000C39086016B90020BDE8F0810120FBE75D
:102EC0005844025870B504460D4600268D480068E7
:102ED00000F00700A8420ED28A48006820F00700E0
:102EE0002843884908600846006800F00700A842A7
:102EF00001D0012070BD207800F00200022807D127
:102F00008148006820F00F00E16808437E490860AE
:102F1000207800F00100002851D07B48006820F4A0
:102F20007060A1680843784908606068022807D18A
:102F3000754818380068C0F34040F8B90120D9E757
:102F40006068032807D1704818380068C0F34060F3
:102F5000A0B90120CEE76068012807D16A48183877
:102F60000068C0F3002048B90120C3E7664818385C
:102F70000068C0F3800008B90120BBE76248083848
:102F8000006820F00700616808435F49083908605D
:102F9000FEF7EAFC06466068022811D108E0FEF759
:102FA000E3FC801B41F28831884201D90320A1E76C
:102FB00055480838006800F038001028EFD13AE092
:102FC0006068032811D108E0FEF7CEFC801B41F2B7
:102FD0008831884201D903208CE74B4808380068C3
:102FE00000F038001828EFD125E06068012811D1E1
:102FF00008E0FEF7B9FC801B41F28831884201D914
:10300000032077E740480838006800F038000828B7
:10301000EFD110E008E0FEF7A7FC801B41F28831F9
:10302000884201D9032065E737480838006800F076
:1030300038000028EFD13348006800F00700A842AC
:103040000ED93048006820F0070028432D49086059
:103050000846006800F00700A84201D0012049E7B7
:10306000207800F00400042807D12748006820F0E9
:1030700070002169084324490860207800F00800A6
:10308000082809D12048001D006820F070006169FF
:1030900008431D49091D0860207800F01000102821
:1030A00009D11948001D006820F4E060A1690843B7
:1030B0001549091D0860207800F02000202809D15A
:1030C00011480830006820F07000E16908430E499B
:1030D0000831086000F066F80B49096801F4706176
:1030E0004FF4807292FAA2F2B2FA82F2D140074A09
:1030F000515CC840064908600F20FEF755FC0020CF
:10310000F8E60000002000521844025872830008BC
:103110001000002410B5FEF7DBFE0949096801F034
:103120000F01012292FAA2F2B2FA82F2D140054ACC
:10313000515CC840044908600846006810BD0000A2
:1031400018440258728300081400002410B5FFF7D9
:10315000E1FF0749096801F07001102292FAA2F21A
:10316000B2FA82F2D140034A515CC84010BD00005F
:103170001C4402587283000810B5FFF7CBFF0749C3
:10318000096801F4E0614FF4807292FAA2F2B2FA97
:1031900082F2D140024A515CC84010BD1C44025822
:1031A0007283000870B5012500EE905A00220121BB
:1031B00000230024DFED861AB0EE610ADFED841AE9
:1031C000B0EE611A0020834D2D6805F0380535B149
:1031D000082D15D0102D15D0182D7CD114E07D4D63
:1031E000103D2D68C5F3401545B17A4D103D2D6851
:1031F000C5F3C106784D25FA06F000E07648E5E013
:103200007648E3E07648E1E0724D18352D6805F028
:103210000302704D18352D68C5F305116D4D1C3531
:103220002D6805F001036B4D24352D68C5F3CC05E1
:1032300015FB03F501EE905AF8EE611AB0EE610A43
:1032400022B1012A4FD0022A7DD16BE0614D103DA1
:103250002D68C5F340152DB35E4D103D2D68C5F3A7
:10326000C1065D4D25FA06F4B4FBF1F501EE905A66
:10327000B8EE612ADFED5B1AC0EE212A554D2035EC
:103280002D68C5F3080501EE905AF8EE611A72EE4A
:10329000A11AF7EE002A71EEA21A62EE211AB0EE20
:1032A000611A1FE04C4DB5FBF1F501EE905AB8EEF6
:1032B000612ADFED4C1AC0EE212A464D20352D68DB
:1032C000C5F3080501EE905AF8EE611A72EEA11AE4
:1032D000F7EE002A00E077E071EEA21A62EE211A02
:1032E000B0EE611A5EE03D4DB5FBF1F501EE905A8E
:1032F000B8EE612ADFED3B1AC0EE212A354D2035AC
:103300002D68C5F3080501EE905AF8EE611A72EEC9
:10331000A11AF7EE002A71EEA21A62EE211AB0EE9F
:10332000611A3FE02E4DB5FBF1F501EE905AB8EE73
:10333000612ADFED2C1AC0EE212A264D20352D689A
:10334000C5F3080500E00EE001EE905AF8EE611AB0
:1033500072EEA11AF7EE002A71EEA21A62EE211A9D
:10336000B0EE611A1EE01D4DB5FBF1F501EE905A6D
:10337000F8EE612ADFED1B1A80EE212A154D20356B
:103380002D68C5F3080501EE905AF8EE611A72EE49
:10339000211AB7EE002A71EE821A62EEA11AB0EE7F
:1033A000611A00BF00BF0B4D20352D68C5F34625BF
:1033B0006D1C00EE905AF8EE601A81EE212AFCEEA8
:1033C000C21A11EE900A01E0044800BF00BF70BDB0
:1033D00000000000104402580090D00300093D0096
:1033E00040787D010000004670B504460025207835
:1033F00000F00100002872D0F948006800F03800A1
:1034000010280CD0F648006800F03800182812D1B7
:10341000F3481830006800F0030002280BD1F04890
:1034200010380068C0F3404000286DD06068002864
:103430006AD1012070BD00BF6068B0F5803F08D13F
:10344000E7481038006840F48030E54910390860DA
:103450002EE0606868B9E2481038006820F48030D7
:10346000DF49103908600846006820F480200860B1
:103470001EE06068B0F5A02F0DD1D9481038006863
:1034800040F48020D649103908600846006840F4AE
:10349000803008600CE0D2481038006820F480309A
:1034A000CF49103908600846006820F48020086081
:1034B00000BF6068A0B1FEF757FA054608E0FEF7C6
:1034C00053FA401B41F28831884201D90320B1E709
:1034D000C34810380068C0F340400028EFD013E024
:1034E000FEF742FA054608E0FEF73EFA401B41F2BD
:1034F0008831884201D903209CE7B9481038006818
:10350000C0F340400028EFD1207800F002000228EC
:1035100047D1B348006800F0380058B1B04800689F
:1035200000F0380018283ED1AD481830006800F08F
:103530000300B8BBAA4810380068C0F3800018B177
:10354000E06808B9012075E7A5481038006820F048
:103550001900E1680843A24910390860FEF704FA2F
:10356000054606E0FEF700FA401B022801D90320B9
:1035700060E79B4810380068C0F380000028F1D055
:1035800097480C38006820F47C304FF47C3292FA73
:10359000A2F2B2FA82F221699140084390490C39B3
:1035A00008604AE0FFE7E06868B38D4810380068BB
:1035B00020F01900E1680843894910390860FEF7D6
:1035C000D3F9054606E0FEF7CFF9401B022801D9E2
:1035D00003202FE7824810380068C0F380000028DD
:1035E000F1D07F480C38006820F47C304FF47C32F6
:1035F00092FAA2F2B2FA82F2216991400843784924
:103600000C39086019E076481038006820F0010095
:10361000734910390860FEF7A7F9054606E0FEF782
:10362000A3F9401B022801D9032003E76C48103896
:103630000068C0F380000028F1D1207800F010006D
:10364000102877D16648006800F0380008280CD0B0
:103650006348006800F03800182823D1604818300B
:10366000006800F0030001281CD15D481038006894
:10367000C0F3002020B1E069802801D00120D9E604
:1036800057480C38006820F0F8404FF0F84292FAA2
:10369000A2F2B2FA82F2216A9140084350490C39F1
:1036A000086047E0E06958B34D481038006840F0C2
:1036B00080004B4910390860FEF756F9054606E0D0
:1036C000FEF752F9401B022801D90320B2E6444814
:1036D00010380068C0F300200028F1D040480C38B2
:1036E000006820F0F8404FF0F84292FAA2F2B2FAE5
:1036F00082F2216A9140084339490C39086019E087
:1037000037481038006820F08000354910390860CB
:10371000FEF72AF9054606E0FEF726F9401B0228C7
:1037200001D9032086E62E4810380068C0F3002037
:103730000028F1D1207800F00800082836D160690F
:10374000D0B127486430006840F00100244964315A
:103750000860FEF709F9054606E0FEF705F9401B8B
:10376000022801D9032065E61D4864300068C0F3D3
:1037700040000028F1D019E019486430006820F0BA
:103780000100174964310860FEF7EEF8054606E0CF
:10379000FEF7EAF8401B022801D903204AE6104848
:1037A00064300068C0F340000028F1D1207800F0B8
:1037B0002000202834D1A069D8B109481038006809
:1037C00040F48050064910390860FEF7CDF80546F0
:1037D00008E0FEF7C9F8401B022803D9032029E6B8
:1037E00010440258AF480068C0F340300028F0D0C1
:1037F00016E0AC48006820F48050AA490860FEF743
:10380000B3F8054606E0FEF7AFF8401B022801D9E1
:1038100003200FE6A3480068C0F340300028F2D12F
:10382000207800F0040004287DD19F48006840F40F
:1038300080709D490860FEF797F8054606E0FEF7A0
:1038400093F8401B642801D90320F3E596480068EB
:1038500000F480700028F2D000BFA068012808D1D1
:1038600090487030006840F001008E497031086067
:103870002DE0A06868B98B487030006820F0010026
:103880008849703108600846006820F0040008602C
:103890001DE0A06805280DD182487030006840F016
:1038A00004008049703108600846006840F001005B
:1038B00008600CE07B487030006820F00100794916
:1038C000703108600846006820F00400086000BFFE
:1038D000A068A0B1FEF748F8054608E0FEF744F8F6
:1038E000401B41F28831884201D90320A2E56D488E
:1038F00070300068C0F340000028EFD013E0FEF7FE
:1039000033F8054608E0FEF72FF8401B41F28831F6
:10391000884201D903208DE5624870300068C0F309
:1039200040000028EFD1606A00287CD05D4810304C
:10393000006800F03800182876D0606A022874D138
:103940005848006820F0807056490860FEF70CF86F
:10395000054606E0FEF708F8401B022801D90320BF
:1039600068E550480068C0F340600028F2D100BF0D
:10397000D4E90A1041EA00104A492831096840F2A6
:10398000F33291430843474928310860208E401E96
:10399000C0F30800616B491E4FF47E4202EA4121E8
:1039A0000843218F491ED20102EA014108433C210C
:1039B000095D491E120202EA0161084339493031AA
:1039C000086000BF081D00684FF6F87188434FF685
:1039D000F87292FAA2F2B2FA82F2A16C9140084314
:1039E0003049343108602F482C30006820F00C003A
:1039F000216C08432B492C3108600846006820F0F0
:103A00000200616C084327492C31086008460068B1
:103A100040F4803008600846006840F400300860D8
:103A20000846006802E03BE038E01FE040F48020F8
:103A300008600846006840F0010008601948006806
:103A400040F0807017490860FDF78EFF054606E0DC
:103A5000FDF78AFF401B022801D90320EAE4114840
:103A60000068C0F340600028F2D019E00D480068FB
:103A700020F080700B490860FDF776FF054606E0F0
:103A8000FDF772FF401B022801D90320D2E405484C
:103A90000068C0F340600028F2D101E00120C9E4D1
:103AA0000020C7E40044025800480258042808D106
:103AB0004FF0E021096941F004014FF0E02211616B
:103AC00007E04FF0E021096921F004014FF0E02206
:103AD0001161704770B504462546681EB0F1807FBD
:103AE00001D301200FE0681E4FF0E02148610F2153
:103AF0004FF0FF3003F026FF00204FF0E0218861F7
:103B000007200861002070BD704770470146002201
:103B1000002391F8792091F87A3042EA0300704747
:103B20002DE9F04104462068C569206807682068CF
:103B3000866805F00F08B8F1000F0DD105F02000E0
:103B400050B107F0200010B906F0805020B1204697
:103B500002F021FFBDE8F081B8F1000F72D05D489E
:103B6000304018B907F4907000287AD005F00100B1
:103B700048B107F4807030B1012021680862E06F1D
:103B800040F00100E06705F0020048B106F00100D6
:103B900030B1022021680862E06F40F00400E06765
:103BA00005F0040048B106F0010030B1042021689E
:103BB0000862E06F40F00200E06705F0080078B1AD
:103BC00007F0200028B906F0805010B906F0010077
:103BD00030B1082021680862E06F40F00800E0671B
:103BE000E06F70B305F0200040B107F0200010B97D
:103BF00006F0805010B1204602F0CDFEE06F00F0DC
:103C0000080020B92068806800F0400018B3204602
:103C100002F0A1FE2068806800F04000B8B1206882
:103C2000806820F0400021688860606F58B12A48A1
:103C3000616F0865606FFDF705F910B1606F016D88
:103C400088470DE00DE02046FFF75FFF08E02046C3
:103C5000FFF75BFF04E02046FFF757FF0020E06717
:103C600078E705F4801078B106F4800060B14FF475
:103C7000801021680862202084F8790084F87A0096
:103C80002046FFF741FF65E705F0800048B107F0E7
:103C9000800010B906F4000018B1204603F092FB32
:103CA00058E705F0400030B107F0400018B1204659
:103CB00002F061FE4EE705F4000040B107F08040DD
:103CC00028B12068006820F080402168086000BFAB
:103CD00040E70000010000103F69000810B50446ED
:103CE0000CB9012010BDA06900B100E000BF94F83C
:103CF000790028B9002084F87800204600F02AF8DE
:103D0000242084F879002068006820F001002168F0
:103D10000860204602F084FE012800D1E2E7606BD3
:103D200010B1204602F05CFD2068406820F490400D
:103D3000216848602068806820F02A002168886037
:103D40002068006840F0010021680860204602F009
:103D5000BCFDC7E710B586B00446214920688842FB
:103D60003BD100BF1F48006840F001001D490860BA
:103D70000846006800F00100009000BF00BF00BFCF
:103D800018481030006840F01000164910310860E3
:103D90000846006800F01000009000BF00BF4FF41C
:103DA00000700190022002900120039002200490F4
:103DB0000720059001A90C48FDF79EFC4FF4806098
:103DC000019001A90848FDF797FC2520FDF713FE97
:103DD000032211462520FDF71EFE06B010BD00008F
:103DE00000100140E0440258000002582DE9F84F4D
:103DF00004460D46164699464FF0000A94F87A009C
:103E000020287AD105B116B90120BDE8F88F00BF8E
:103E100094F87800012801D10220F6E7012084F807
:103E2000780000BF0020683460612220A074FDF794
:103E30009BFD824626806680683C00BFA068B0F586
:103E4000805F0AD1206920B940F2FF10A4F86C000D
:103E50001CE0FF20A4F86C0018E0A06848B92069B5
:103E600018B9FF20A4F86C0010E07F20A4F86C00C3
:103E70000CE0A068B0F1805F08D1206918B97F20FC
:103E8000A4F86C0002E03F20A4F86C0000BFB4F876
:103E90006C8024E0B4F86A00401EA4F86A0053461F
:103EA000002220212046CDF8009003F0CCFA08B182
:103EB0000320AAE7A068B0F5805F09D1206938B96E
:103EC0002F462068808C00EA08003880AD1C06E090
:103ED0002068808C08F0FF01084005F8010BB4F859
:103EE0006A000028D6D1202084F87A0000BF002084
:103EF00084F8780000BF88E7FFE7022085E710B567
:103F0000034693F87A00202867D101B10AB901204D
:103F100010BD00BF93F87800012801D10220F7E717
:103F2000012083F8780000BF5966A3F86820A3F841
:103F30006A2000BF9868B0F5805F0AD1186920B97F
:103F400040F2FF10A3F86C001CE0FF20A3F86C0007
:103F500018E0986848B9186918B9FF20A3F86C00F0
:103F600010E07F20A3F86C000CE09868B0F1805F4F
:103F700008D1186918B97F20A3F86C0002E03F202F
:103F8000A3F86C0000BF0020D867222083F87A00D5
:103F900000BF002083F8780000BF1868806840F0F8
:103FA00001001C68A0601868006800F0005060B153
:103FB0001868006840F480701C6820601868806889
:103FC00040F080501C68A06005E01868006840F46C
:103FD00090701C68206000209AE7022098E700009B
:103FE0001D4A0168914236D11C49098801F40041FB
:103FF00089BB1A49098801F4804171B118490978CF
:104000000A2903D00021154A118024E013490988A8
:1040100041F40041114A11801DE0114909780D2930
:1040200006D10E49098841F480410C4A118012E002
:104030000B490978094A1288C2F30D02094B9954B9
:1040400006490988491C054A118011460988C72973
:1040500001DD002111807047001001402400002480
:1040600026000024B01400242DE9F84304460D4630
:1040700016461F464FF0000994F87900202854D1C5
:1040800005B116B90120BDE8F88300BF94F87800A7
:10409000012801D10220F6E7012084F8780000BF52
:1040A00000206034E06121206076FDF75DFC8146F0
:1040B00026806680603C21E0B4F86200401EA4F8CF
:1040C00062004B46002280212046009703F0BBF996
:1040D00008B10320D7E7A068B0F5805F0AD1206956
:1040E00040B9A846B8F80000C0F308002168088568
:1040F000AD1C03E015F8010B21680885B4F86200D7
:104100000028D9D14B46002240212046009703F0D9
:104110009AF908B10320B6E7202084F8790000BF9F
:10412000002084F8780000BFADE70220ABE77047BD
:1041300000BFFEE710B5002210211248FDF70EFC6B
:104140001048006820F440600E4908600846006886
:1041500040F480600860002220210A48FDF7FEFB41
:10416000022003F0DFFC012210210648FDF7F6FBD8
:10417000022003F0D7FC002210210248FDF7EEFBDD
:1041800010BD0000001C025800B587B000BF1248E7
:10419000006840F08000104908600846006800F0A0
:1041A0008000019000BF00BF3020029001200390EA
:1041B00004900320059002A90848FDF79DFA01220A
:1041C00020210648FDF7CAFB012210210348FDF714
:1041D000C5FB07B000BD0000E0440258001C0258B7
:1041E00010B5002210211248FDF7B8FB10480068F6
:1041F00020F440600E4908600846006840F4806082
:104200000860012220210A48FDF7A8FB022003F0E4
:1042100089FC012210210648FDF7A0FB022003F0D3
:1042200081FC002210210248FDF798FB10BD000020
:10423000001C025870B5054600241848006820F498
:1042400040601649086008460068086000261AE0C9
:10425000002210211148FDF781FB022003F062FCCF
:10426000012210210D48FDF779FB6006040E202184
:104270000A48FDF767FB08B1601CC4B2012003F0D7
:1042800051FC701CC6B2082EE2DB15B9FFF7A8FF7F
:1042900001E0FFF74FFF204670BD0000001C0258F0
:1042A00070B504461C48006820F440601A49086054
:1042B0000846006840F4806008600022102116481B
:1042C000FDF74CFB002523E0E00928B10122202165
:1042D0001148FDF743FB04E0002220210E48FDF7C2
:1042E0003DFB6006040E022003F01CFC012210219D
:1042F0000948FDF733FB022003F014FC00221021D3
:104300000548FDF72BFB022003F00CFC681CC5B22E
:10431000082DD9DB70BD0000001C025810B51348F1
:10432000006820F44060114908600846006840F4C5
:1043300080600860012220210C48FDF70FFB01225C
:1043400010210A48FDF70AFB042003F0EBFB0022D2
:1043500020210648FDF702FB042003F0E3FB0022C6
:1043600010210248FDF7FAFA10BD0000001C0258A7
:1043700010B51348006820F44060114908600846F1
:10438000006840F480600860002210210C48FDF7AE
:10439000E5FA002220210A48FDF7E0FA042003F0A4
:1043A000C1FB012210210648FDF7D8FA0122202185
:1043B0000348FDF7D3FA042003F0B4FB10BD00005E
:1043C000001C025810B500241748006820F4406013
:1043D000154908600846006808600122202112483B
:1043E000FDF7BCFA012003F09DFB012210210E48CD
:1043F000FDF7B4FA012003F095FB07E0601CC4B29E
:10440000FA2C03DDFFF7B4FF012010BD2021064880
:10441000FDF798FA0028F1D1002210210248FDF79B
:104420009DFA0020F1E70000001C025800B587B09B
:1044300000BF2448006840F0010022490860084697
:10444000006800F00100019000BF00BF00BF0846F7
:10445000006840F0040008600846006800F00400AE
:10446000019000BF00BF00BF0846006840F0800018
:1044700008600846006800F08000019000BF00BF9F
:104480000120029000200390022004900320059058
:1044900002A90D48FDF730F94FF4005002900020BA
:1044A0000390012004900320059002A90748FDF71E
:1044B00023F90C20029002A90548FDF71DF907B069
:1044C00000BD0000E04402580000025800080258F5
:1044D000001C025810B50446012C01D12D4908706A
:1044E0002C480078002839D008212B48FDF72AFAFB
:1044F00080B104212848FDF725FA58B14FF4005146
:104500002648FDF71FFA28B101212548FDF71AFAC0
:10451000012823D10A2003F0CFFA00201D4908709A
:1045200008211D48FDF70EFA08B9012010BD04212D
:104530001948FDF707FA08B90220F7E74FF40051D0
:104540001648FDF7FFF908B90320EFE701211448E9
:10455000FDF7F8F901281BD10420E7E708210E48F0
:10456000FDF7F0F9012813D104210B48FDF7EAF912
:1045700001280DD141030948FDF7E4F9012807D1CD
:1045800001210748FDF7DEF910B901200149087043
:104590000020CBE731000024001C0258000802581C
:1045A0000000025800B587B000BF1248006840F014
:1045B0000200104908600846006800F002000190FF
:1045C00000BF00BF0320029001200390049003204D
:1045D000059002A90848FDF78FF801221146064808
:1045E000FDF7BCF9012202210348FDF7B7F907B036
:1045F00000BD0000E04402580004025800BFFEE77E
:10460000704700002DE9F04105460E46144600278C
:104610001148007818B112202070BDE8F081287888
:10462000012808D0022807D0032802D0042804D18A
:1046300000E000BF00BF00BF02E001202070ECE7F7
:1046400000BFFBF7D1FE07466E613846FBF7D0FE90
:104650000020207000BFE0E75100002410B500F0FA
:1046600015F801F0BBF801F0E7F801F007F901F0E7
:1046700085F801F045F801F09BF901F03FF901F0F0
:1046800065F900F039FE00F01DF810BD09488021E1
:1046900002E0491E002204C00029FAD1064A074B55
:1046A0001A601A46126822F007021A600022044BB0
:1046B0001A807047CC3B0024CC3D00249800002495
:1046C0009C0000247047000006480078012808D1AB
:1046D00005480078FF2804D203480078401C0249AE
:1046E000087070475E0000245100002410B50024BB
:1046F0001A480078012830D1FBF776FE04461848A6
:10470000007820B116480078401E154908701448FA
:104710000078F8B913480078E0B901F0ABF9124815
:104720001249097850F82100114908600F480078B3
:104730001049097888420DD00D480068C06B401CB4
:104740000B490968C8630C480068401C0A490860A6
:10475000FBF76AFE2046FBF74BFE10BD5E0000240F
:1047600051000024520000241C2E00245400002478
:104770006C000024530000243800002410B50024ED
:104780000B480078012811D1FBF72EFE044609489A
:10479000007840B908480078FF2804D2064800781D
:1047A000401C054908702046FBF722FE10BD0000A2
:1047B0005E000024510000245200002410B50024A3
:1047C00013480078012821D1FBF70EFE044611485A
:1047D0000078C0B91048007888B10F480078401EB2
:1047E0000D4908700846007828B92046FBF700FEFE
:1047F00001F006F90AE02046FBF7FAFD06E0204644
:10480000FBF7F6FD02E02046FBF7F2FD10BD0000CD
:104810005E000024510000245200002470B50546BB
:1048200000261048007808B1002070BDFBF7DCFDC1
:1048300006460D480468006820B10B4800684068CF
:10484000094908603046FBF7D3FD4CB103202070C6
:1048500025810020606005A06061204600F042FFD5
:104860002046E2E7510000243C0000243F00000005
:104870002DE9F04105460E46144600272878032806
:1048800003D001202070BDE8F0813248007810B1DB
:1048900002202070F7E73048007810B10D2020701A
:1048A000F1E7FBF7A1FD0746288940B12889401EA2
:1048B00028813846FBF79CFD00202070E3E727485D
:1048C000006890F8340040F001002449096881F83C
:1048D000340000202149096881F835001F4800682C
:1048E0000663284600F0C0FE3846FBF781FD01F064
:1048F00087F8FBF779FD07461848006890F83500FF
:1049000020B1012809D0022806D102E00020207041
:104910000BE00E20207008E000BF29460F48006819
:1049200000F06EFE0A20207000BF00BF00200B497F
:10493000096881F834000949096881F83500074998
:104940000968C8610549096808623846FBF750FDE7
:1049500000BF98E7510000245200002464000024A6
:1049600070B5044600252078032801D0012070BDD1
:10497000FBF73AFD0546A07A60B1002301221946F3
:10498000204600F0F5FD2846FBF732FD01F038F82F
:104990000020ECE720894FF6FF71884207D220897A
:1049A000401C20812846FBF723FD0020DFE7284636
:1049B000FBF71EFD3320DAE710B50B48007890B9FD
:1049C00001F058F809480078094908700948074972
:1049D000097850F82100084908600846006807492E
:1049E0000860FBF708FD10BD5E00002454000024A1
:1049F000530000241C2E00246C00002464000024BA
:104A000010B50024022000F0A7FBFBF7EDFC0446E4
:104A100000200B4908602046FBF7EAFC642000F008
:104A20009BFBFBF7E1FC044605480068054908606C
:104A30000120054908702046FBF7DAFC10BD000094
:104A400060000024480000245000002410B50446F3
:104A50002046FBF7CFFF10BD2DE9F04F85B0814612
:104A60008A4693461C46DDE90F78129D002003908C
:104A7000FBF7BAFC03902348007830B10398FBF7AA
:104A8000B7FC3C2005B0BDE8F08F1F4850F824006B
:104A900088BB01201C4941F824000398FBF7A8FCBF
:104AA0002A464146384601F029F92B465A465146D6
:104AB000484600F0CBF904901198CDE900800295AA
:104AC0003A4620460E9B049900F0EAFF064636B9A6
:104AD0000E48007801280CD100F092FF09E0FBF7A6
:104AE00083FC03900020084941F824000398FBF759
:104AF0007FFC3046C6E7FFE70398FBF779FC2820E8
:104B0000C0E70000510000241C2E00245E00002499
:104B100010B504462046FBF76EFF10BD2DE9F041AD
:104B2000054600274A48007810B14020BDE8F081D2
:104B30003F2D01D13E20F9E7FBF756FC0746FF2D3C
:104B400003D14448006890F83650434850F8254057
:104B500024B93846FBF74CFC4320E7E7012C04D18D
:104B60003846FBF745FC3D20E0E714F8380F3B4999
:104B7000085C617888432178384A505414F8380921
:104B80001146085C30B994F83A10354800788843EB
:104B900033490870E06918B12046E16900F030FD42
:104BA000206A18B12046216A00F041FDA66A16B1BC
:104BB000304600F0D1FD0020206384F8340084F8F2
:104BC000350028480078FF2804D226480078401C89
:104BD000244908703846FBF70BFC00F0C7FCFBF7D4
:104BE00003FC07461F48007820B11E480078401E8D
:104BF0001C490870204600F041F81B480078401E10
:104C0000194908700020144941F82500A06930B9FD
:104C100000206169886115496069086005E0D4E990
:104C200005014861D4E90510886111480068606198
:104C30000F4804600FA020653846FBF7D9FB0E48EB
:104C40000078012801D100F0DBFE00206EE70000B3
:104C500051000024640000241C2E0024560000246F
:104C600055000024520000245F000024700000243E
:104C7000680000243F0000005E00002410B50446D8
:104C80002046FBF7B9FE10BD10B5FBF7B6FE10BD10
:104C90002DE9F04106460F4614464FF0000815482E
:104CA000007818B112202070BDE8F081FBF79CFB62
:104CB0008046FF2E03D11048006890F836600F48F8
:104CC00050F826502DB94046FBF792FB4320207048
:104CD000EAE7012D05D14046FBF78AFB432020700F
:104CE000E2E72F654046FBF783FB0020207000BF02
:104CF000DAE7000051000024640000241C2E002488
:104D000070B505460026FBF76FFB0646244850F8B1
:104D1000254024B93046FBF76BFB462070BD012CC3
:104D200004D13046FBF764FB4320F7E794F83400E6
:104D300000F0080070B314F8340F00F0F700207092
:104D400014F8340900F03700F8B9206BC8B93834CA
:104D5000A07814490978084312490870207812494C
:104D6000085C6178084314F838190F4A50543046EB
:104D7000FBF73EFB0D480078012809D100F040FE0A
:104D800006E03046FBF734FB02E03046FBF730FB31
:104D90000020C3E73046FBF72BFB4420BEE70000B2
:104DA0001C2E002455000024560000245E00002420
:104DB00010B504462046FBF721FE10BD10B5FBF7E9
:104DC0001EFE10BD2DE9F04707460D464FF0000AC4
:104DD000002028606860FBF707FB8246FF2F03D1A5
:104DE0001848006890F83670174850F827402CB9DA
:104DF0005046FBF7FDFA4320BDE8F087012C04D1B3
:104E00005046FBF7F5FA4320F6E7207C00F001005E
:104E100020B95046FBF7ECFA4520EDE70026D4F820
:104E20000C90D4F808805046FBF7E2FA00E0761CBC
:104E300058F8041B0029FAD02E60A9EB0600686020
:104E40000020D9E7640000241C2E002470B504461D
:104E5000101D20F007004FF08076051F28462E60B9
:104E6000051F28462C60684E051F28462E604FF00F
:104E70001236051F28462E604FF00336051F2846C0
:104E80002E604FF00236051F28462E607610051F53
:104E900028462E60051F284629604FF01136051F51
:104EA00028462E604FF01036051F28462E604FF022
:104EB0000936051F28462E604FF00836051F284684
:104EC0002E604FF00736051F28462E604FF006363D
:104ED000051F28462E604FF00536051F28462E6018
:104EE0004FF00436051F28462E6003F00405002D00
:104EF0007ED0F605051F28462E60444E051F284625
:104F00002E60434E051F28462E60424E051F284640
:104F10002E60414E051F28462E60404E051F284634
:104F20002E603F4E051F28462E603E4E051F284628
:104F30002E603D4E051F28462E603C4E051F28461C
:104F40002E603B4E051F28462E603A4E051F284610
:104F50002E60394E051F28462E60384E051F284604
:104F60002E60374E051F28462E60364E051F2846F8
:104F70002E604FF08346051F28462E60324E051FD7
:104F800028462E60314E051F28462E60304E051FE4
:104F900028462E602F4E051F28462E602E4E051FD8
:104FA00028462E602D4E051F28462E602C4E051FCC
:104FB00028462E604FF08246051F28462E60294E57
:104FC000051F28462E60284E051F28462E60274EB6
:104FD000051F28462E604FF08146051F28462E608B
:104FE000234E051F28462E603602051F284600E086
:104FF00009E02E604FF07E56051F28462E600026E1
:10500000051F28462E6070BD095C00080000F841AD
:105010000000F0410000E8410000E0410000D841FC
:105020000000D0410000C8410000C0410000B8416C
:105030000000B0410000A8410000A04100009841DC
:105040000000904100008841000070410000604174
:10505000000050410000404100003041000020416C
:10506000000010410000E0400000C0400000A040EF
:10507000000040402DE9F04105464FF00008FBF7E5
:10508000B3F98046FF2D05D12048006890F83650CE
:10509000012608E01D48006890F83600A84201D1BA
:1050A000012600E000261A4850F825402CB9404659
:1050B000FBF79EF94820BDE8F081012C04D1404661
:1050C000FBF796F94320F6E794F838701148C05D75
:1050D00094F8391088430F49C8550846C05D30B967
:1050E00094F83A100C48007888430B49087094F8FB
:1050F000340040F0080084F834004046FBF778F9AB
:10510000012E01D100F07CFC0020D4E764000024D3
:105110001C2E0024560000245500002410B50C4815
:105120000068007C00F0040020B1094909680868A3
:10513000FBF744F907480068007C00F0040020B148
:10514000044909680868FBF746F9FBF759FC10BDEC
:10515000640000246C00002470B505460026174842
:10516000007800B170BD1648007800B1FAE71DB3B1
:10517000FBF73AF906461348006890F838401248A1
:10518000005D1049096891F8391088430E490855A7
:105190000846005D40B90B48006890F83A100B488B
:1051A000007888430949087006480068056330465E
:1051B000FBF71EF900F024FC00BFD3E751000024E8
:1051C00052000024640000245600002455000024EE
:1051D00070B5002600F072F8FBF706F90646314874
:1051E0000068401C2F4908603046FBF701F92E4843
:1051F0000078012853D12D48007820B1012804D02F
:10520000022809D103E001250BE0002509E0012572
:1052100001202649087004E0012500202349087078
:1052200000BF00BF05B970BD2148046833E0FBF73B
:10523000DBF80646206B50B3206B401E2063206BCA
:1052400028BB94F8340000F0370040B114F8340F54
:1052500000F0C800207001206070343C02E00020A3
:1052600084F8350094F8340000F0080078B9383438
:10527000A0781049097808430E49087020780E4933
:10528000085C6178084314F838190B4A5054646973
:105290003046FBF7ADF894F836003F28C7D100BF81
:1052A000C1E70000800000245E0000247400002498
:1052B00070000024550000245600002410B5FBF7B0
:1052C000A0FB07480088401C054908800846008864
:1052D0000A2803D30020088000F004F810BD000065
:1052E0009C00002410B503480068FFF739FB044612
:1052F000204610BD90000024F8B54FF420712848D6
:1053000000F04CFB4021274800F048FB002514E04A
:10531000681C86B205EB8500214901EBC00406EB51
:10532000860001EBC00764202070002084F825006F
:10533000E7601DA02062681C85B20F2DE8D305EB45
:105340008500174901EBC00464202070002084F818
:105350002500E06014A02062002014490860144970
:1053600008801020134908800D4813490860012067
:10537000FFF754FA114908600020FFF74FFA10496F
:1053800008606A460FA10D480068FFF73BF96A46BE
:1053900011A10B480068FFF735F900F027F8F8BDB8
:1053A0000C3700248C3B00243F00000088000024C0
:1053B0008600002484000024940000248C00002433
:1053C0009000002475432F4F532D494920546D728E
:1053D0004C6F636B0000000075432F4F532D4949FC
:1053E00020546D725369676E616C000000B587B020
:1053F0000320002180220A4BCDE90132CDE90310C0
:105400004FF6FD700B46074A00900748FFF724FB54
:1054100006AA06A10020FFF73BFC07B000BD000074
:105420008C390024883B0024A954000875432F4F71
:10543000532D494920546D720000000070B50B4691
:10544000032580F82550012B05D1154EC569366816
:10545000354445610CE085692DB9114EC569366842
:105460003544456104E00E4E856936683544456132
:10547000057D05F007040B4D05EBC4010D682DB942
:1054800008600025C56001258D8006E00A68086077
:10549000C26010618D886D1C8D800025056170BD16
:1054A000880000248C3B002408B500BF00BF6A467A
:1054B00000211A480068FFF7DBF9FFF75FF9184889
:1054C0000068401C164908600846007800F007088C
:1054D000144800EBC8073C681AE0E66810496069A8
:1054E0000968884213D1204600F01EF894F8240081
:1054F000022804D101212046FFF7A0FF02E002208C
:1055000084F82500656815B12046A168A84734468F
:10551000002CE2D1FFF752F9C9E700009000002407
:10552000880000248C3B002430B5057D05F007047D
:105530000D4D05EBC4031D68854205D1C168196096
:1055400039B100250D6104E00169C268CA6002B189
:105550001161012580F825500025C56005619D88F1
:105560006D1E9D8030BD00008C3B00247047000004
:105570002DE9F04F05460F4690469946A87A1C49FA
:105580000E5C05F10B00805D11F800B00BEBC6005E
:1055900000F0FF0A174850F82A4000202434E06049
:1055A0002760207C20EA0800207484F81190207C79
:1055B000243C00F0080068B994F83A000E490978D4
:1055C00008430D4908700D48805D94F83910084370
:1055D0000A4988552946204600F012F8206A20B171
:1055E0002046216A00F023F8E5615046BDE8F08FBF
:1055F000058400081C2E00245500002456000024B9
:1056000010B590F8382001F10B039B5C90F83940FD
:10561000A34301F10B04A35423469B5C23B98B7A6B
:1056200090F83A40A3438B720023C36110BDF0B5DC
:10563000024612F8384F95785678383A0B46186873
:105640000FE000F10B073F5DB74300F10B0C0CF8C6
:10565000047067463F5D17B9877AAF4387721B1D99
:1056600018680028EDD1F0BD10B51B4A1268D06152
:10567000194A126892F8383000F10B02D25C164BCE
:105680001B6893F839301A43134B1B6893F8384062
:1056900000F10B031A55827A0F4B1B6893F83A30CE
:1056A0001A4382720C4A126892F838100B4A525C04
:1056B000094B1B6893F839309A43084B5A541A46E1
:1056C000525C42B9044A126892F83A30044A12789D
:1056D0009A43034B1A7010BD640000245600002446
:1056E00055000024014600228A72002005E00023B4
:1056F00001F10B021354421CD0B20828F7D37047B3
:105700002DE9F0415021114800F048F900250DE045
:10571000681C86B20D4800EB051400EB061700204C
:10572000207067600AA0E060681C85B2042DEFD38A
:10573000064800EB051400202070606004A0E060C3
:10574000024804490860BDE8F0810000CC2900242B
:105750003F0000004000002430B501464A68086858
:105760002AB9CC68606028B10025456002E010606D
:1057700000B142608B6800259D6230BD70B54FF46A
:10578000F071134800F00AF9002411E0601C85B2A2
:1057900004EB44000E4901EBC00305EB450001EBAF
:1057A000C006002018705E600AA05861601C84B2B8
:1057B000132CEBD304EB4400054901EBC00300209C
:1057C0001870586003A0586108460349086070BD0E
:1057D000EC2700243F0000003C00002400200B497F
:1057E00008600B4908700B4908700B4908700B4999
:1057F00008700B4908600B4908600B4908600B49A9
:1058000008600B4908700B4908707047800000243D
:1058100051000024520000245F0000245E00002498
:1058200038000024600000244C00002448000024BC
:10583000500000247C00002400210A4A117000203E
:1058400004E00021084A1154411CC8B20828F8D3CA
:105850000021064A1170064A1170064A1160064A74
:1058600011607047550000245600002453000024A6
:10587000540000246C0000246400002470B54FF430
:10588000F261194800F08AF84FF48071174800F06F
:1058900085F8002413E0601CC5B204EB440000EB63
:1058A000C400114901EBC00305EB450000EBC50046
:1058B00001EBC0065E610EA01865601CC4B2152C19
:1058C000E9D304EB440000EBC400074901EBC0033B
:1058D0000020586106A018650020064908600248AB
:1058E0000549086070BD00001C2F00241C2E0024F8
:1058F0003F000000700000246800002400B587B05D
:105900000320002180220A4BCDE90132CDE90310AA
:105910004FF6FF703F23074A00900748FFF79CF8B7
:1059200006AA06A13F20FFF7B3F907B000BD0000AB
:105930001C2C0024182E0024E15B000875432F4F17
:10594000532D49492049646C6500000000B587B0BB
:105950000320002180220A4BCDE90132CDE903105A
:105960004FF6FE703E23074A00900748FFF774F891
:1059700006AA06A13E20FFF78BF907B000BD000084
:105980001C2A0024182C0024215C000875432F4F8A
:10599000532D4949205374617400000004E0002233
:1059A00000F8012B4A1E91B20029F8D1704700007F
:1059B0002DE9F04160211048FFF7F0FF00240DE0D1
:1059C000601C86B204EB44000B4901EBC00506EBFA
:1059D000460001EBC0072F60601C84B2032CEFD39C
:1059E00004EB4400044901EBC00500202860084690
:1059F00002490860BDE8F081AC360024780000243C
:105A000010B50024FAF7F0FC044613480078F8B902
:105A100012480078E0B900F02DF8114811490978D2
:105A200050F82100104908600E4800780F490978A5
:105A300088420DD00C480068C06B401C0A490968B8
:105A4000C8630B480068401C09490860FAF7E7FC86
:105A50002046FAF7CDFC10BD51000024520000246E
:105A60001C2E0024540000246C0000245300002449
:105A7000380000240649074A1278885C0649095C08
:105A8000034A515C01EBC001044A117070470000E9
:105A9000058400085500002456000024540000240A
:105AA0002DE9F84F05460F4690469946DDE90AABC9
:105AB00000200090FAF798FC009042480468002CFF
:105AC0007BD01C3454F8080C3E4908600098FAF763
:105AD0008FFC44F81C7CA5760020207660766061FF
