:020000040800F2
:1000000018320024490300088D2800088D240008B8
:100010008928000887090008954F000800000000A3
:100020000000000000000000000000007B0300084A
:10003000A90900080000000027040008B5410008D5
:100040008303000883030008830300088303000878
:100050008303000883030008830300088303000868
:100060008303000883030008830300088303000858
:100070008303000883030008830300088303000848
:100080008303000883030008830300088303000838
:100090008303000883030008830300088303000828
:1000A0008303000883030008830300088303000818
:1000B0008303000883030008830300088303000808
:1000C00083030008830300088303000883030008F8
:1000D000830300083D4F00088303000883030008E2
:1000E0008303000883030008000000008303000866
:1000F00083030008830300088303000883030008C8
:1001000083030008830300088303000883030008B7
:1001100083030008830300088303000883030008A7
:100120008303000883030008830300088303000897
:100130008303000883030008830300088303000887
:1001400000000000000000000000000000000000AF
:100150008303000883030008830300088303000867
:100160008303000883030008830300088303000857
:1001700083030008830300088303000800000000D5
:100180008303000883030008830300088303000837
:100190008303000883030008830300088303000827
:1001A0008303000883030008830300088303000817
:1001B0008303000883030008830300088303000807
:1001C00083030008830300088303000883030008F7
:1001D00083030008830300088303000883030008E7
:1001E00083030008830300088303000883030008D7
:1001F00083030008830300088303000883030008C7
:1002000083030008830300088303000883030008B6
:1002100083030008830300088303000883030008A6
:100220008303000883030008830300080000000024
:100230008303000883030008000000008303000814
:100240008303000883030008830300088303000876
:100250008303000883030008830300088303000866
:100260008303000883030008830300088303000856
:1002700083030008830300088303000800000000D4
:100280008303000800000000830300080000000052
:10029000000000008303000800F002F800F044F8BA
:1002A0000AA090E8000C82448344AAF10107DA45D1
:1002B00001D100F039F8AFF2090EBAE80F0013F0DF
:1002C000010F18BFFB1A43F001031847E053000069
:1002D00000540000103A24BF78C878C1FAD85207F9
:1002E00024BF30C830C144BF04680C6070470000B0
:1002F0000023002400250026103A28BF78C1FBD82F
:10030000520728BF30C148BF0B607047782900F002
:100310009F81632900F02E82002070471FB505F0F1
:10032000CBF81FBD10B510BD00F062FA1146FFF703
:10033000F5FF04F0FFFE00F080FA03B4FFF7F2FFD0
:1003400003BC04F045FE000011488047DFF844007C
:10035000016841F470010160BFF34F8FDFF838008E
:10036000016821F040410160BFF36F8F0B480047E7
:10037000FEE7FEE7FEE7FEE7FEE7FEE7FEE7FEE755
:10038000FEE7FEE706480749074A084B70470000AA
:10039000D541000888ED00E034EF00E09902000844
:1003A00018260024183200241828002418280024B5
:1003B000EFF3098141B1F1EE101A40F8041D20ED70
:1003C000200A29490A6810607047B0EC200A02C868
:1003D000E1EE101A25490A6810607047EFF31080AB
:1003E00072B6704780F31088704721484FF0FF01C4
:1003F0000170002080F309881E48016881F3088895
:100400001D48012101701D484FF08051016062B606
:10041000FEE71A484FF080510160704717484FF0CF
:1004200080510160704772B6EFF3098028B120381F
:1004300080E8F00F0C490968086000B51048804753
:100440005DF804EB0F4810490A7802700648074926
:100450000A680260106890E8F00F203080F3098885
:100460004EF0F40E62B6704750000024580000248D
:1004700022ED00E0840000244A00002404ED00E0A6
:10048000A93300083F0000244000002453EA020C76
:1004900000F069802DE9F04B4FF00006002B1FBFE4
:1004A000B3FA83F503FA05F424FA05F65E4012BFA9
:1004B0001643B2FA82F502FA05F4C5F120051EBF13
:1004C00022FA05FC44EA0C04203556EA044C4FEAB3
:1004D000144418BF641C4FF000084FF0000990420C
:1004E00071EB030C39D3002919BFB1FA81F701FA76
:1004F00007F6B0FA80F700FA07F6C7F120071EBF2B
:1005000020FA07FC46EA0C062037B6FBF4FCA7EB02
:100510000507103F07F01F0BCBF120060CFA0BFB71
:100520002CFA06F644BFB3460026202FA4BF5E4631
:100530004FF0000B5BEA060C08BF4FF0010B19EB04
:100540000B09ABFB027C48EB0608C01B06FB02CC88
:100550000BFB03CC71EB0C01C1E70B460246414695
:100560004846BDE8F08B13B54FF000004FF0000196
:10057000AFF30080BDE81C40704700000FB4044991
:1005800010B503AA029800F001F910BC5DF814FB45
:10059000100000242DE9F0410E46044600202062A0
:1005A0002046E168884730B3252805D0D4E90121E9
:1005B0009047206A401CF2E7E16820460027884700
:1005C000050018D0A5F14100192802D820354FF4B4
:1005D00000673246294620462760FFF797FE40B164
:1005E000012804D0F61D26F007060836D8E7361D88
:1005F000D6E72846DAE7206ABDE8F08170B50C46F8
:100600000546012A05D02878800600D5EA6900232E
:1006100002E0012305E05B1C934202D2E05C00286B
:10062000F9D1A869E618C01AA861286A1844286296
:100630002846AFF3008004E0D5E9012114F8010B4E
:100640009047B442F8D32846AFF3008070BD000055
:1006500070B504460D4621461068AFF3008021882E
:10066000090502D50F4A7A4402E00E4A7A440E3256
:10067000002104F1240305E000F00F060009965D57
:100680005E54491C0028F7D120780023000704D5C8
:10069000702D02D009B1022311322046BDE870400E
:1006A00000F005B8185000007047704770472DE9FA
:1006B000F0470D4699469246044600F12408016829
:1006C000880604D5E06921F01001216000E00120D6
:1006D000A84201DD471B00E00027A1697A1902EB5F
:1006E0000900081AA0612078C00602D42046AFF3A2
:1006F0000080002608E0D4E901211AF8060090479E
:10070000206A401C761C20624E45F4DB2078C0062F
:100710000AD52046AFF3008006E0D4E9012130205D
:100720009047206A401C2062381EA7F10107F4DCC4
:1007300007E0D4E9012118F805009047206A401C21
:100740002062281EA5F10105F3DC2046AFF30080EE
:100750002078000602D50220BDE8F0870120FBE7E3
:1007600010B5436913B1AFF3008001E0FFF746FF16
:10077000012010BD127800F124010A7000224A7095
:100780000122EDE711684FF0FF32E9E7074B70B542
:100790000D467B4400F011F80446284600F020F88E
:1007A00010B14FF0FF3070BD204670BD47490000CA
:1007B00001694A1C02610878704700B58FB0CDE925
:1007C00001310021059105497944CDE90310114615
:1007D0006846FFF7DFFE0FB000BD0000E5FFFFFF3A
:1007E000007B00F08000704700487047B42500246B
:1007F0007546FFF7F9FFAE4605006946534620F0FF
:100800000700854618B020B5FFF7BCFDBDE82040C5
:100810004FF000064FF000074FF000084FF0000BBC
:1008200021F00701AC46ACE8C009ACE8C009ACE86F
:10083000C009ACE8C0098D46704710B50446AFF357
:1008400000802046BDE81040FFF777BD10B5FF20BF
:1008500000F028F80446552C01D1002010BD552188
:10086000FF2000F05DF8FF2000F01CF80446552C36
:1008700001D10020F2E70120F0E710B501F032FECF
:1008800010BD70B506460C46154608E03046721C91
:1008900096B200F007F804F8010B681E85B2002D2F
:1008A000F4D170BD70B50446002601F0E5FE254682
:1008B000E11704EB11610912A02202EB4101C8B259
:1008C00001F09CFE01F02CFFE11704EB116109120D
:1008D000A4EB0121C8B201F091FE01F021FF01F06B
:1008E000CBFEA12001F08AFE01F01AFF002001F0EA
:1008F0004FFE064601F0EAFE304670BD70B5054673
:100900000C46164606E02178284600F009F8681CD7
:1009100085B2641C301EA6F101018EB2F3D170BD08
:1009200070B504460E4601F0A7FE2546E11704EB1C
:1009300011610912A02202EB4101C8B201F05EFE72
:1009400001F0EEFEE11704EB11610912A4EB0121A5
:10095000C8B201F053FE01F0E3FE304601F04EFE56
:1009600001F0DEFE01F0B2FE0A2004F055FB70BD7E
:10097000704770477047704770477047704710B5B1
:1009800000F0D8F910BD00BFFEE7000010B503F07D
:1009900057FB03F007FB0348006840F004000149DF
:1009A000086010BD9CEF00E07047000010B50446E1
:1009B0000CB9012010BD94F83500022803D0802026
:1009C00060650120F6E734492068884205D3334941
:1009D0002068884201D8012000E00020C0B1042036
:1009E00084F835002C49206888420AD32B492068B6
:1009F000884206D82068006820F00100216808605D
:100A000048E02068006820F001002168086041E0AB
:100A10002068006820F00E00216808601E492068E8
:100A200088420AD31D492068884206D82068006899
:100A300020F001002168086005E02068006820F0CF
:100A4000010021680860206E006820F48070216E2B
:100A5000086094F85C100120884011490860D4E9CE
:100A600019104860E06E40B1E06E006820F48070BC
:100A7000E16E0860D4E91C10486000BF002084F8D3
:100A8000340000BF012084F83500206D10B12046ED
:100A9000216D884700208DE710000240B804024015
:100AA000045402580348006840F0010001490860FE
:100AB0007047000020040058F8B502460B4600219C
:100AC000002600240020824D00BFFCE0012707FA29
:100AD00001F61F6807EA0604B4427CD15F68022F62
:100AE00002D05F68122F1AD14FEAD10C02F1200711
:100AF00057F82C004F074FEAD76C0F2707FA0CF76F
:100B0000B8434FEA417C4FEADC6C1F6907FA0CF7E7
:100B100038434FEAD10C02F1200747F82C00106847
:100B20004FEA410C032707FA0CF7B8431F7907F087
:100B300003074FEA410C07FA0CF7384310605F686F
:100B4000012F08D05F68022F05D05F68112F02D0F7
:100B50005F68122F17D190684FEA410C032707FAFC
:100B60000CF7B8434FEA410CDF6807FA0CF738433B
:100B70009060506801278F40B8431F79C7F3001772
:100B80008F4038435060D0684FEA410C032707FA82
:100B90000CF7B8434FEA410C9F6807FA0CF738434B
:100BA000D0605F6807F08057B7F1805F95D100BFD4
:100BB000484F3F6847F00207DFF818C1CCF80070D3
:100BC00067463F6807F00207009700BF00BF424F2B
:100BD0004FEA910C00E075E057F82C008F074FEAC0
:100BE000177C0F2707FA0CF7B8433C4FBA4201D1E4
:100BF00000272DE03A4FBA4201D1012728E0394FB2
:100C0000BA4201D1022723E0374FBA4201D103276C
:100C10001EE0364FBA4201D1042719E0344FBA42E0
:100C200001D1052714E0334FBA4201D106270FE066
:100C3000314FBA4201D107270AE0304FBA4201D101
:100C4000082705E02E4FBA4201D1092700E00A2704
:100C50004FEA817C4FEA1C7C07FA0CF738431E4FA1
:100C60004FEA910C47F82C002868A0435F6807F40E
:100C70008037B7F5803F00D1204328606868A043E3
:100C80005F6807F40037B7F5003F00D12043686084
:100C90004FF0B0473868A0435F6807F48017B7F596
:100CA000801F00D120434FF0B04738607868A043E0
:100CB0005F6807F40017B7F5001F00D120434FF01D
:100CC000B0477860491C1029FFF400AFF8BD000060
:100CD00080000058F44402580804005800000258EC
:100CE0000004025800080258000C02580010025874
:100CF0000014025800180258001C02580020025824
:100D000000240258024613690B400BB1012000E099
:100D10000020704742694A40426170470AB101832E
:100D200000E0418370470000014800687047000000
:100D30001800002403480068034909780844014961
:100D400008607047180000242000002410B503201C
:100D500000F07EF80F2000F007F808B1012010BD68
:100D600000F028F80020FAE770B504460E48007835
:100D70004FF47A71B1FBF0F00C490968B1FBF0F562
:100D8000284601F0DFF808B1012070BD102C07D211
:100D900000222146501E00F01EF80548046001E0C4
:100DA0000120F2E70020F0E72000002400000024EA
:100DB0001C000024704701460846002809DB00F0AB
:100DC0001F0301229A4043099B0003F1E023C3F86B
:100DD000002100BF70472DE9F05F80460D461646A2
:100DE00004F0DAF8074639462A46334601F0070090
:100DF000C0F1070ABAF1040F02D94FF0040A01E06A
:100E0000C0F1070AD14600F1040ABAF1070F02D275
:100E10004FF0000A01E0A0F1030AD4464FF0010AA6
:100E20000AFA09FAAAF1010A0AEA020A0AFA0CFA0B
:100E30004FF0010B0BFA0CFBABF1010B0BEA030BB0
:100E40004AEA0B042146404604F0AEF8BDE8F09FA4
:100E500000BF00F00702064B19684FF6FF03194068
:100E6000044B0B4343EA0221014B196000BF70475A
:100E70000CED00E00000FA0510B500F0CBFB0949CD
:100E8000096801F470614FF4807292FAA2F2B2FA2A
:100E900082F2D140044A515CC840044908600846C7
:100EA000006810BD18440258425500080000002494
:100EB00010B500F067FB0749096801F070011022C6
:100EC00092FAA2F2B2FA82F2D140034A515CC840CF
:100ED00010BD0000204402584255000870B501467C
:100EE00000220120002300249FED811AB0EE410A68
:100EF0009FED7F1AF0EE410A7E4D2D6805F003024A
:100F00007C4D2D68C5F305307A4D2D1D2D6805F0FB
:100F10001003784D14352D68C5F3CC0515FB03F58A
:100F200001EE105AB8EE411AB0EE410A22B1012A80
:100F30004DD0022A7DD169E06E4D283D2D68C5F364
:100F400040152DB36B4D283D2D68C5F3C1066A4D84
:100F500025FA06F4B4FBF0F501EE105AF8EE411A4A
:100F60009FED661A80EE012A624D10352D68C5F39B
:100F7000080501EE105AB8EE411A32EE011AB7EE2A
:100F8000002A31EE021A21EE811AF0EE410A1DE02C
:100F9000594DB5FBF0F501EE105AF8EE411A9FEDF0
:100FA000571A80EE012A534D10352D68C5F30805F8
:100FB00001EE105AB8EE411A32EE011AB7EE002ACD
:100FC00031EE021A21EE811AF0EE410A5EE04C4D3C
:100FD000B5FBF0F501EE105AB8EE412A9FED471A25
:100FE000C0EE011A434D10352D68C5F3080501EE1A
:100FF000105AB8EE411A31EE811AF7EE001A31EEAE
:10100000211A22EE011AF0EE410A3FE03D4DB5FBF8
:10101000F0F501EE105AF8EE411A9FED381A80EE05
:10102000012A344D10352D68C5F3080501EE105A1C
:1010300000E00CE0B8EE411A32EE011AB7EE002AD9
:1010400031EE021A21EE811AF0EE410A1EE02C4D1B
:10105000B5FBF0F501EE105AB8EE412A9FED271AC4
:10106000C0EE011A234D10352D68C5F3080501EEB9
:10107000105AB8EE411A31EE811AF7EE001A31EE2D
:10108000211A22EE011AF0EE410A00BF00BF194DED
:1010900010352D68C5F346256D1C01EE105AB8EECB
:1010A000411AC0EE811ABCEEE11A81ED001A114D11
:1010B00010352D68C5F306456D1C01EE105AB8EECB
:1010C000411AC0EE811ABCEEE11A81ED011A094DF8
:1010D00010352D68C5F306656D1C01EE105AB8EE8B
:1010E000411AC0EE811ABCEEE11A81ED021A70BD00
:1010F00000000000284402580090D0030000004681
:1011000000093D0040787D0170B5014600220120B4
:10111000002300249FED811AB0EE410A9FED7F1A53
:10112000F0EE410A7E4D2D6805F003027C4D2D68DE
:10113000C5F305507A4D2D1D2D6805F48073784D4B
:101140001C352D68C5F3CC0515FB03F501EE105ACF
:10115000B8EE411AB0EE410A22B1012A4DD0022A5E
:101160007DD169E06E4D283D2D68C5F340152DB346
:101170006B4D283D2D68C5F3C1066A4D25FA06F46E
:10118000B4FBF0F501EE105AF8EE411A9FED661A25
:1011900080EE012A624D18352D68C5F3080501EE71
:1011A000105AB8EE411A32EE011AB7EE002A31EEAB
:1011B000021A21EE811AF0EE410A1DE0594DB5FBED
:1011C000F0F501EE105AF8EE411A9FED571A80EE35
:1011D000012A534D18352D68C5F3080501EE105A44
:1011E000B8EE411A32EE011AB7EE002A31EE021AB9
:1011F00021EE811AF0EE410A5EE04C4DB5FBF0F5B0
:1012000001EE105AB8EE412A9FED471AC0EE011ABE
:10121000434D18352D68C5F3080501EE105AB8EE98
:10122000411A31EE811AF7EE001A31EE211A22EE40
:10123000011AF0EE410A3FE03D4DB5FBF0F501EE3D
:10124000105AF8EE411A9FED381A80EE012A344DFB
:1012500018352D68C5F3080501EE105A00E00CE0C2
:10126000B8EE411A32EE011AB7EE002A31EE021A38
:1012700021EE811AF0EE410A1EE02C4DB5FBF0F58F
:1012800001EE105AB8EE412A9FED271AC0EE011A5E
:10129000234D18352D68C5F3080501EE105AB8EE38
:1012A000411A31EE811AF7EE001A31EE211A22EEC0
:1012B000011AF0EE410A00BF00BF194D18352D6824
:1012C000C5F346256D1C01EE105AB8EE411AC0EE6A
:1012D000811ABCEEE11A81ED001A114D18352D6806
:1012E000C5F306456D1C01EE105AB8EE411AC0EE6A
:1012F000811ABCEEE11A81ED011A094D18352D68ED
:10130000C5F306656D1C01EE105AB8EE411AC0EE29
:10131000811ABCEEE11A81ED021A70BD00000000D6
:10132000284402580090D0030000004600093D0008
:1013300040787D0170B504460D4600268D48006852
:1013400000F00700A8420ED28A48006820F007008B
:101350002843884908600846006800F00700A84252
:1013600001D0012070BD207800F00200022807D1D2
:101370008148006820F00F00E16808437E4908605A
:10138000207800F00100002851D07B48006820F44C
:101390007060A1680843784908606068022807D136
:1013A000754818380068C0F34040F8B90120D9E703
:1013B0006068032807D1704818380068C0F340609F
:1013C000A0B90120CEE76068012807D16A48183823
:1013D0000068C0F3002048B90120C3E76648183808
:1013E0000068C0F3800008B90120BBE762480838F4
:1013F000006820F00700616808435F490839086009
:10140000FFF792FC06466068022811D108E0FFF75A
:101410008BFC801B41F28831884201D90320A1E76F
:1014200055480838006800F038001028EFD13AE03D
:101430006068032811D108E0FFF776FC801B41F2B9
:101440008831884201D903208CE74B48083800686E
:1014500000F038001828EFD125E06068012811D18C
:1014600008E0FFF761FC801B41F28831884201D916
:10147000032077E740480838006800F03800082863
:10148000EFD110E008E0FFF74FFC801B41F28831FC
:10149000884201D9032065E737480838006800F022
:1014A00038000028EFD13348006800F00700A84258
:1014B0000ED93048006820F0070028432D49086005
:1014C0000846006800F00700A84201D0012049E763
:1014D000207800F00400042807D12748006820F095
:1014E00070002169084324490860207800F0080052
:1014F000082809D12048001D006820F070006169AB
:1015000008431D49091D0860207800F010001028CC
:1015100009D11948001D006820F4E060A169084362
:101520001549091D0860207800F02000202809D105
:1015300011480830006820F07000E16908430E4946
:101540000831086000F066F80B49096801F4706121
:101550004FF4807292FAA2F2B2FA82F2D140074AB4
:10156000515CC840064908600F20FFF7FDFB0020D2
:10157000F8E60000002000521844025842550008C6
:101580000000002410B5FFF777FC0949096801F055
:101590000F01012292FAA2F2B2FA82F2D140054A78
:1015A000515CC840044908600846006810BD00004E
:1015B00018440258425500080400002410B5FFF7F3
:1015C000E1FF0749096801F07001102292FAA2F2C6
:1015D000B2FA82F2D140034A515CC84010BD00000B
:1015E0001C4402584255000810B5FFF7CBFF0749CD
:1015F000096801F4E0614FF4807292FAA2F2B2FA43
:1016000082F2D140024A515CC84010BD1C440258CD
:101610004255000870B5012500EE905A00220121C4
:1016200000230024DFED861AB0EE610ADFED841A94
:10163000B0EE611A0020834D2D6805F0380535B1F4
:10164000082D15D0102D15D0182D7CD114E07D4D0E
:10165000103D2D68C5F3401545B17A4D103D2D68FC
:10166000C5F3C106784D25FA06F000E07648E5E0BE
:101670007648E3E07648E1E0724D18352D6805F0D4
:101680000302704D18352D68C5F305116D4D1C35DD
:101690002D6805F001036B4D24352D68C5F3CC058D
:1016A00015FB03F501EE905AF8EE611AB0EE610AEF
:1016B00022B1012A4FD0022A7DD16BE0614D103D4D
:1016C0002D68C5F340152DB35E4D103D2D68C5F353
:1016D000C1065D4D25FA06F4B4FBF1F501EE905A12
:1016E000B8EE612ADFED5B1AC0EE212A554D203598
:1016F0002D68C5F3080501EE905AF8EE611A72EEF6
:10170000A11AF7EE002A71EEA21A62EE211AB0EECB
:10171000611A1FE04C4DB5FBF1F501EE905AB8EEA1
:10172000612ADFED4C1AC0EE212A464D20352D6886
:10173000C5F3080501EE905AF8EE611A72EEA11A8F
:10174000F7EE002A00E077E071EEA21A62EE211AAD
:10175000B0EE611A5EE03D4DB5FBF1F501EE905A39
:10176000B8EE612ADFED3B1AC0EE212A354D203557
:101770002D68C5F3080501EE905AF8EE611A72EE75
:10178000A11AF7EE002A71EEA21A62EE211AB0EE4B
:10179000611A3FE02E4DB5FBF1F501EE905AB8EE1F
:1017A000612ADFED2C1AC0EE212A264D20352D6846
:1017B000C5F3080500E00EE001EE905AF8EE611A5C
:1017C00072EEA11AF7EE002A71EEA21A62EE211A49
:1017D000B0EE611A1EE01D4DB5FBF1F501EE905A19
:1017E000F8EE612ADFED1B1A80EE212A154D203517
:1017F0002D68C5F3080501EE905AF8EE611A72EEF5
:10180000211AB7EE002A71EE821A62EEA11AB0EE2A
:10181000611A00BF00BF0B4D20352D68C5F346256A
:101820006D1C00EE905AF8EE601A81EE212AFCEE53
:10183000C21A11EE900A01E0044800BF00BF70BD5B
:1018400000000000104402580090D00300093D0041
:1018500040787D010000004670B5044600252078E0
:1018600000F00100002872D0F948006800F038004C
:1018700010280CD0F648006800F03800182812D163
:10188000F3481830006800F0030002280BD1F0483C
:1018900010380068C0F3404000286DD06068002810
:1018A0006AD1012070BD00BF6068B0F5803F08D1EB
:1018B000E7481038006840F48030E5491039086086
:1018C0002EE0606868B9E2481038006820F4803083
:1018D000DF49103908600846006820F4802008605D
:1018E0001EE06068B0F5A02F0DD1D948103800680F
:1018F00040F48020D649103908600846006840F45A
:10190000803008600CE0D2481038006820F4803045
:10191000CF49103908600846006820F4802008602C
:1019200000BF6068A0B1FFF7FFF9054608E0FFF7C8
:10193000FBF9401B41F28831884201D90320B1E70D
:10194000C34810380068C0F340400028EFD013E0CF
:10195000FFF7EAF9054608E0FFF7E6F9401B41F218
:101960008831884201D903209CE7B94810380068C3
:10197000C0F340400028EFD1207800F00200022898
:1019800047D1B348006800F0380058B1B04800684B
:1019900000F0380018283ED1AD481830006800F03B
:1019A0000300B8BBAA4810380068C0F3800018B123
:1019B000E06808B9012075E7A5481038006820F0F4
:1019C0001900E1680843A24910390860FFF7ACF933
:1019D000054606E0FFF7A8F9401B022801D90320BD
:1019E00060E79B4810380068C0F380000028F1D001
:1019F00097480C38006820F47C304FF47C3292FA1F
:101A0000A2F2B2FA82F221699140084390490C395E
:101A100008604AE0FFE7E06868B38D481038006866
:101A200020F01900E1680843894910390860FFF780
:101A30007BF9054606E0FFF777F9401B022801D93C
:101A400003202FE7824810380068C0F38000002888
:101A5000F1D07F480C38006820F47C304FF47C32A1
:101A600092FAA2F2B2FA82F22169914008437849CF
:101A70000C39086019E076481038006820F0010041
:101A8000734910390860FFF74FF9054606E0FFF784
:101A90004BF9401B022801D9032003E76C4810389A
:101AA0000068C0F380000028F1D1207800F0100019
:101AB000102877D16648006800F0380008280CD05C
:101AC0006348006800F03800182823D160481830B7
:101AD000006800F0030001281CD15D481038006840
:101AE000C0F3002020B1E069802801D00120D9E6B0
:101AF00057480C38006820F0F8404FF0F84292FA4E
:101B0000A2F2B2FA82F2216A9140084350490C399C
:101B1000086047E0E06958B34D481038006840F06D
:101B200080004B4910390860FFF7FEF8054606E0D3
:101B3000FFF7FAF8401B022801D90320B2E6444817
:101B400010380068C0F300200028F1D040480C385D
:101B5000006820F0F8404FF0F84292FAA2F2B2FA90
:101B600082F2216A9140084339490C39086019E032
:101B700037481038006820F0800035491039086077
:101B8000FFF7D2F8054606E0FFF7CEF8401B022823
:101B900001D9032086E62E4810380068C0F30020E3
:101BA0000028F1D1207800F00800082836D16069BB
:101BB000D0B127486430006840F001002449643106
:101BC0000860FFF7B1F8054606E0FFF7ADF8401BE7
:101BD000022801D9032065E61D4864300068C0F37F
:101BE00040000028F1D019E019486430006820F066
:101BF0000100174964310860FFF796F8054606E0D2
:101C0000FFF792F8401B022801D903204AE610484A
:101C100064300068C0F340000028F1D1207800F063
:101C20002000202834D1A069D8B1094810380068B4
:101C300040F48050064910390860FFF775F80546F2
:101C400008E0FFF771F8401B022803D9032029E6BA
:101C500010440258AF480068C0F340300028F0D06C
:101C600016E0AC48006820F48050AA490860FFF7ED
:101C70005BF8054606E0FFF757F8401B022801D93C
:101C800003200FE6A3480068C0F340300028F2D1DB
:101C9000207800F0040004287DD19F48006840F4BB
:101CA00080709D490860FFF73FF8054606E0FFF7A2
:101CB0003BF8401B642801D90320F3E596480068EF
:101CC00000F480700028F2D000BFA068012808D17D
:101CD00090487030006840F001008E497031086013
:101CE0002DE0A06868B98B487030006820F00100D2
:101CF0008849703108600846006820F004000860D8
:101D00001DE0A06805280DD182487030006840F0C1
:101D100004008049703108600846006840F0010006
:101D200008600CE07B487030006820F001007949C1
:101D3000703108600846006820F00400086000BFA9
:101D4000A068A0B1FEF7F0FF054608E0FEF7ECFF43
:101D5000401B41F28831884201D90320A2E56D4839
:101D600070300068C0F340000028EFD013E0FEF7A9
:101D7000DBFF054608E0FEF7D7FF401B41F2883144
:101D8000884201D903208DE5624870300068C0F3B5
:101D900040000028EFD1606A00287CD05D481030F8
:101DA000006800F03800182876D0606A022874D1E4
:101DB0005848006820F0807056490860FEF7B4FF6C
:101DC000054606E0FEF7B0FF401B022801D90320BC
:101DD00068E550480068C0F340600028F2D100BFB9
:101DE000D4E90A1041EA00104A492831096840F252
:101DF000F33291430843474928310860208E401E42
:101E0000C0F30800616B491E4FF47E4202EA412193
:101E10000843218F491ED20102EA014108433C21B7
:101E2000095D491E120202EA016108433949303155
:101E3000086000BF081D00684FF6F87188434FF630
:101E4000F87292FAA2F2B2FA82F2A16C91400843BF
:101E50003049343108602F482C30006820F00C00E5
:101E6000216C08432B492C3108600846006820F09B
:101E70000200616C084327492C310860084600685D
:101E800040F4803008600846006840F40030086084
:101E90000846006802E03BE038E01FE040F48020A4
:101EA00008600846006840F00100086019480068B2
:101EB00040F0807017490860FEF736FF054606E0DF
:101EC000FEF732FF401B022801D90320EAE4114843
:101ED0000068C0F340600028F2D019E00D480068A7
:101EE00020F080700B490860FEF71EFF054606E0F3
:101EF000FEF71AFF401B022801D90320D2E405484F
:101F00000068C0F340600028F2D101E00120C9E47C
:101F10000020C7E40044025800480258042808D1B1
:101F20004FF0E021096941F004014FF0E022116116
:101F300007E04FF0E021096921F004014FF0E022B1
:101F40001161704770B504462546681EB0F1807F68
:101F500001D301200FE0681E4FF0E02148610F21FE
:101F60004FF0FF3003F020F800204FF0E0218861AF
:101F700007200861002070BD7047704701460022AD
:101F8000002391F8792091F87A3042EA03007047F3
:101F90002DE9F04104462068C5692068076820687B
:101FA000866805F00F08B8F1000F0DD105F020008C
:101FB00050B107F0200010B906F0805020B1204643
:101FC00002F02DFABDE8F081B8F1000F72D05D4843
:101FD000304018B907F4907000287AD005F001005D
:101FE00048B107F4807030B1012021680862E06FC9
:101FF00040F00100E06705F0020048B106F0010082
:1020000030B1022021680862E06F40F00400E06710
:1020100005F0040048B106F0010030B10420216849
:102020000862E06F40F00200E06705F0080078B158
:1020300007F0200028B906F0805010B906F0010022
:1020400030B1082021680862E06F40F00800E067C6
:10205000E06F70B305F0200040B107F0200010B928
:1020600006F0805010B1204602F0D9F9E06F00F080
:10207000080020B92068806800F0400018B32046AE
:1020800002F0ADF92068806800F04000B8B1206827
:10209000806820F0400021688860606F58B12A484D
:1020A000616F0865606FFEF781FC10B1606F016DB4
:1020B00088470DE00DE02046FFF75FFF08E020466F
:1020C000FFF75BFF04E02046FFF757FF0020E067C3
:1020D00078E705F4801078B106F4800060B14FF421
:1020E000801021680862202084F8790084F87A0042
:1020F0002046FFF741FF65E705F0800048B107F093
:10210000800010B906F4000018B1204602F09EFECF
:1021100058E705F0400030B107F0400018B1204604
:1021200002F06DF94EE705F4000040B107F0804081
:1021300028B12068006820F080402168086000BF56
:1021400040E7000001000010C743000810B5044636
:102150000CB9012010BDA06900B100E000BF94F8E7
:10216000790028B9002084F87800204600F02AF889
:10217000242084F879002068006820F0010021689C
:102180000860204602F090F9012800D1E2E7606B78
:1021900010B1204602F068F82068406820F49040B2
:1021A000216848602068806820F02A0021688860E3
:1021B0002068006840F0010021680860204602F0B5
:1021C000C8F8C7E710B586B00446214920688842A0
:1021D0003BD100BF1F48006840F001001D49086066
:1021E0000846006800F00100009000BF00BF00BF7B
:1021F00018481030006840F010001649103108608F
:102200000846006800F01000009000BF00BF4FF4C7
:10221000007001900220029001200390022004909F
:102220000720059001A90C48FEF746FC4FF480609A
:10223000019001A90848FEF73FFC2520FEF7BBFDF1
:10224000032211462520FEF7C6FD06B010BD000092
:1022500000100140E04402580000025810B5034647
:1022600093F87A00202867D101B10AB9012010BD86
:1022700000BF93F87800012801D10220F7E7012080
:1022800083F8780000BF5966A3F86820A3F86A2095
:1022900000BF9868B0F5805F0AD1186920B940F294
:1022A000FF10A3F86C001CE0FF20A3F86C0018E0FE
:1022B000986848B9186918B9FF20A3F86C0010E0B5
:1022C0007F20A3F86C000CE09868B0F1805F08D123
:1022D000186918B97F20A3F86C0002E03F20A3F82A
:1022E0006C0000BF0020D867222083F87A0000BF6E
:1022F000002083F8780000BF1868806840F0010073
:102300001C68A0601868006800F0005060B1186890
:10231000006840F480701C6820601868806840F095
:1023200080501C68A06005E01868006840F4907058
:102330001C68206000209AE7022098E71D4A016887
:10234000914236D11C49098801F4004189BB1A49E0
:10235000098801F4804171B1184909780A2903D02C
:102360000021154A118024E01349098841F40041F5
:10237000114A11801DE0114909780D2906D10E4935
:10238000098841F480410C4A118012E00B49097818
:10239000094A1288C2F30D02094B9954064909886B
:1023A000491C054A118011460988C72901DD002111
:1023B0001180704700100140140000241600002412
:1023C0008C0E00242DE9F84304460D4616461F46A0
:1023D0004FF0000994F87900202854D105B116B9BE
:1023E0000120BDE8F88300BF94F87800012801D1EE
:1023F0000220F6E7012084F8780000BF0020603456
:10240000E06121206076FEF78FFC814626806680A1
:10241000603C21E0B4F86200401EA4F862004B4624
:10242000002280212046009702F051FD08B10320D0
:10243000D7E7A068B0F5805F0AD1206940B9A84607
:10244000B8F80000C0F3080021680885AD1C03E05F
:1024500015F8010B21680885B4F862000028D9D16D
:102460004B46002240212046009702F030FD08B183
:102470000320B6E7202084F8790000BF002084F80C
:10248000780000BFADE70220ABE7704700BFFEE772
:1024900010B5002210211248FEF740FC10480068D9
:1024A00020F440600E4908600846006840F48060EF
:1024B0000860002220210A48FEF730FC022002F0CA
:1024C000E1FD012210210648FEF728FC022002F05F
:1024D000D9FD002210210248FEF720FC10BD0000AB
:1024E000001C025800B587B000BF1248006840F0D9
:1024F0008000104908600846006800F080000190E4
:1025000000BF00BF30200290012003900490032000
:10251000059002A90848FEF7CFFA012220210648BB
:10252000FEF7FCFB012210210348FEF7F7FB07B082
:1025300000BD0000E0440258001C025810B5002203
:1025400010211248FEF7EAFB1048006820F44060B2
:102550000E4908600846006840F480600860012267
:1025600020210A48FEF7DAFB022002F08BFD01224F
:1025700010210648FEF7D2FB022002F083FD002264
:1025800010210248FEF7CAFB10BD0000001C0258D3
:1025900070B5054600241848006820F440601649CC
:1025A000086008460068086000261AE00022102132
:1025B0001148FEF7B3FB022002F064FD0122102156
:1025C0000D48FEF7ABFB6006040E20210A48FEF71B
:1025D00099FB08B1601CC4B2012002F053FD701CCD
:1025E000C6B2082EE2DB15B9FFF7A8FF01E0FFF73E
:1025F0004FFF204670BD0000001C025870B5044615
:102600001C48006820F440601A49086008460068C9
:1026100040F480600860002210211648FEF77EFB1F
:10262000002523E0E00928B1012220211148FEF70E
:1026300075FB04E0002220210E48FEF76FFB6006C8
:10264000040E022002F01EFD012210210948FEF7AF
:1026500065FB022002F016FD002210210548FEF75E
:102660005DFB022002F00EFD681CC5B2082DD9DB0F
:1026700070BD0000001C025810B51348006820F41B
:102680004060114908600846006840F480600860B6
:10269000012220210C48FEF741FB012210210A48AB
:1026A000FEF73CFB042002F0EDFC0022202106484E
:1026B000FEF734FB042002F0E5FC00221021024862
:1026C000FEF72CFB10BD0000001C025810B513488B
:1026D000006820F44060114908600846006840F432
:1026E00080600860002210210C48FEF717FB0022D2
:1026F00020210A48FEF712FB042002F0C3FC01224D
:1027000010210648FEF70AFB012220210348FEF7AC
:1027100005FB042002F0B6FC10BD0000001C0258AE
:1027200010B500241748006820F44060154908607F
:10273000084600680860012220211248FEF7EEFAE0
:10274000012002F09FFC012210210E48FEF7E6FA5C
:10275000012002F097FC07E0601CC4B2FA2C03DDF4
:10276000FFF7B4FF012010BD20210648FEF7CAFA8A
:102770000028F1D1002210210248FEF7CFFA0020F4
:10278000F1E70000001C025800B587B000BF2448E4
:10279000006840F00100224908600846006800F027
:1027A0000100019000BF00BF00BF0846006840F074
:1027B000040008600846006800F00400019000BFB3
:1027C00000BF00BF0846006840F08000086008466F
:1027D000006800F08000019000BF00BF012002905F
:1027E00000200390022004900320059002A90D48C8
:1027F000FEF762F94FF40050029000200390012090
:1028000004900320059002A90748FEF755F90C2013
:10281000029002A90548FEF74FF907B000BD00007D
:10282000E04402580000025800080258001C0258F8
:1028300000B587B000BF1248006840F002001049A0
:1028400008600846006800F00200019000BF00BF69
:10285000032002900120039004900320059002A918
:102860000848FEF729F9012211460648FEF756FAF4
:10287000012202210348FEF751FA07B000BD000013
:10288000E04402580004025800BFFEE77047000011
:102890002DE9F04105460E46144600271148007800
:1028A00018B112202070BDE8F0812878012808D0E6
:1028B000022807D0032802D0042804D100E000BF7A
:1028C00000BF00BF02E001202070ECE700BFFDF771
:1028D00085FD07466E613846FDF784FD00202070B7
:1028E00000BFE0E73D00002410B500F015F801F04E
:1028F000BBF801F0E7F801F007F901F085F801F005
:1029000045F801F09BF901F03FF901F065F900F09D
:1029100039FE00F01DF810BD0948802102E0491E73
:10292000002204C00029FAD1064A074B1A601A4651
:10293000126822F007021A600022044B1A807047C6
:10294000B4230024B425002484000024880000243B
:102950007047000006480078012808D10548007833
:10296000FF2804D203480078401C024908707047D1
:102970004A0000243D00002410B500241A480078C5
:10298000012830D1FDF72AFD04461848007820B10F
:1029900016480078401E1549087014480078F8B9A8
:1029A00013480078E0B901F0ABF9124812490978F0
:1029B00050F82100114908600F4800781049097843
:1029C00088420DD00D480068C06B401C0B49096857
:1029D000C8630C480068401C0A490860FDF71EFDEA
:1029E0002046FDF7FFFC10BD4A0000243D000024F6
:1029F0003E00002404160024400000245800002457
:102A00003F0000242400002410B500240B48007867
:102A1000012811D1FDF7E2FC04460948007840B9CD
:102A200008480078FF2804D206480078401C054971
:102A300008702046FDF7D6FC10BD00004A000024B7
:102A40003D0000243E00002410B500241348007807
:102A5000012821D1FDF7C2FC044611480078C0B915
:102A60001048007888B10F480078401E0D49087062
:102A70000846007828B92046FDF7B4FC01F006F9B5
:102A80000AE02046FDF7AEFC06E02046FDF7AAFC72
:102A900002E02046FDF7A6FC10BD00004A0000241D
:102AA0003D0000243E00002470B505460026104875
:102AB000007808B1002070BDFDF790FC06460D4877
:102AC0000468006820B10B48006840680949086044
:102AD0003046FDF787FC4CB1032020702581002093
:102AE000606005A06061204600F042FF2046E2E7FA
:102AF0003D000024280000243F0000002DE9F041A3
:102B000005460E46144600272878032803D00120E6
:102B10002070BDE8F0813248007810B102202070AA
:102B2000F7E73048007810B10D202070F1E7FDF78D
:102B300055FC0746288940B12889401E288138461F
:102B4000FDF750FC00202070E3E72748006890F86C
:102B5000340040F001002449096881F83400002065
:102B60002149096881F835001F4800680663284636
:102B700000F0C0FE3846FDF735FC01F087F8FDF7A0
:102B80002DFC07461848006890F8350020B1012850
:102B900009D0022806D102E0002020700BE00E20B0
:102BA000207008E000BF29460F48006800F06EFE64
:102BB0000A20207000BF00BF00200B49096881F87F
:102BC00034000949096881F8350007490968C86176
:102BD0000549096808623846FDF704FC00BF98E71C
:102BE0003D0000243E0000245000002470B504463F
:102BF00000252078032801D0012070BDFDF7EEFBF1
:102C00000546A07A60B1002301221946204600F053
:102C1000F5FD2846FDF7E6FB01F038F80020ECE76B
:102C200020894FF6FF71884207D22089401C2081FD
:102C30002846FDF7D7FB0020DFE72846FDF7D2FB4B
:102C40003320DAE710B50B48007890B901F058F856
:102C5000094800780949087009480749097850F877
:102C60002100084908600846006807490860FDF728
:102C7000BCFB10BD4A000024400000243F0000249B
:102C800004160024580000245000002410B500242D
:102C9000022000F0A7FBFDF7A1FB044600200B4932
:102CA00008602046FDF79EFB642000F09BFBFDF7CB
:102CB00095FB044605480068054908600120054960
:102CC00008702046FDF78EFB10BD00004C0000246C
:102CD000340000243C00002410B504462046FDF7D3
:102CE00047FE10BD2DE9F04F85B081468A469346D8
:102CF0001C46DDE90F78129D00200390FDF76EFB66
:102D000003902348007830B10398FDF76BFB3C201B
:102D100005B0BDE8F08F1F4850F8240088BB0120A3
:102D20001C4941F824000398FDF75CFB2A46414604
:102D3000384601F029F92B465A465146484600F0DC
:102D4000CBF904901198CDE9008002953A462046CF
:102D50000E9B049900F0EAFF064636B90E4800784B
:102D600001280CD100F092FF09E0FDF737FB03903A
:102D70000020084941F824000398FDF733FB304652
:102D8000C6E7FFE70398FDF72DFB2820C0E700000A
:102D90003D000024041600244A00002410B5044617
:102DA0002046FDF7E6FD10BD2DE9F0410546002760
:102DB0004A48007810B14020BDE8F0813F2D01D194
:102DC0003E20F9E7FDF70AFB0746FF2D03D14448F3
:102DD000006890F83650434850F8254024B93846EA
:102DE000FDF700FB4320E7E7012C04D13846FDF74F
:102DF000F9FA3D20E0E714F8380F3B49085C6178A8
:102E000088432178384A505414F838091146085C30
:102E100030B994F83A10354800788843334908703F
:102E2000E06918B12046E16900F030FD206A18B170
:102E30002046216A00F041FDA66A16B1304600F036
:102E4000D1FD0020206384F8340084F83500284840
:102E50000078FF2804D226480078401C24490870D6
:102E60003846FDF7BFFA00F0C7FCFDF7B7FA074692
:102E70001F48007820B11E480078401E1C49087089
:102E8000204600F041F81B480078401E19490870A0
:102E90000020144941F82500A06930B9002061697B
:102EA000886115496069086005E0D4E90501486159
:102EB000D4E9051088611148006860610F4804601A
:102EC0000FA020653846FDF78DFA0E4800780128DE
:102ED00001D100F0DBFE00206EE700003D00002481
:102EE0005000002404160024420000244100002465
:102EF0003E0000244B0000245C0000245400002409
:102F00003F0000004A00002410B504462046FDF7AB
:102F100031FD10BD10B5FDF72EFD10BD2DE9F041BE
:102F200006460F4614464FF000081548007818B1C1
:102F300012202070BDE8F081FDF750FA8046FF2E88
:102F400003D11048006890F836600F4850F82650BA
:102F50002DB94046FDF746FA43202070EAE7012DDF
:102F600005D14046FDF73EFA43202070E2E72F6589
:102F70004046FDF737FA0020207000BFDAE7000076
:102F80003D000024500000240416002470B50546BE
:102F90000026FDF723FA0646244850F8254024B9B8
:102FA0003046FDF71FFA462070BD012C04D1304693
:102FB000FDF718FA4320F7E794F8340000F0080012
:102FC00070B314F8340F00F0F700207014F83409CF
:102FD00000F03700F8B9206BC8B93834A07814492C
:102FE000097808431249087020781249085C617812
:102FF000084314F838190F4A50543046FDF7F2F9D7
:103000000D480078012809D100F040FE06E0304666
:10301000FDF7E8F902E03046FDF7E4F90020C3E7E8
:103020003046FDF7DFF94420BEE700000416002417
:1030300041000024420000244A00002410B5044648
:103040002046FDF799FC10BD10B5FDF796FC10BDAC
:103050002DE9F04707460D464FF0000A0020286092
:103060006860FDF7BBF98246FF2F03D1184800685E
:1030700090F83670174850F827402CB95046FDF7A5
:10308000B1F94320BDE8F087012C04D15046FDF78B
:10309000A9F94320F6E7207C00F0010020B9504652
:1030A000FDF7A0F94520EDE70026D4F80C90D4F800
:1030B00008805046FDF796F900E0761C58F8041B8E
:1030C0000029FAD02E60A9EB060068600020D9E73D
:1030D000500000240416002470B50446101D20F092
:1030E00007004FF08076051F28462E60051F2846F2
:1030F0002C60684E051F28462E604FF01236051FC3
:1031000028462E604FF00336051F28462E604FF0EC
:103110000236051F28462E607610051F28462E60B1
:10312000051F284629604FF01136051F28462E60DE
:103130004FF01036051F28462E604FF00936051F48
:1031400028462E604FF00836051F28462E604FF0A7
:103150000736051F28462E604FF00636051F284605
:103160002E604FF00536051F28462E604FF00436BE
:10317000051F28462E6003F00405002D7ED0F605BD
:10318000051F28462E60444E051F28462E60434EDC
:10319000051F28462E60424E051F28462E60414ED0
:1031A000051F28462E60404E051F28462E603F4EC4
:1031B000051F28462E603E4E051F28462E603D4EB8
:1031C000051F28462E603C4E051F28462E603B4EAC
:1031D000051F28462E603A4E051F28462E60394EA0
:1031E000051F28462E60384E051F28462E60374E94
:1031F000051F28462E60364E051F28462E604FF0CC
:103200008346051F28462E60324E051F28462E6035
:10321000314E051F28462E60304E051F28462E6071
:103220002F4E051F28462E602E4E051F28462E6065
:103230002D4E051F28462E602C4E051F28462E6059
:103240004FF08246051F28462E60294E051F28464E
:103250002E60284E051F28462E60274E051F284643
:103260002E604FF08146051F28462E60234E051F15
:1032700028462E603602051F284600E009E02E6031
:103280004FF07E56051F28462E600026051F284653
:103290002E6070BD953E00080000F8410000F0412E
:1032A0000000E8410000E0410000D8410000D041AA
:1032B0000000C8410000C0410000B8410000B0411A
:1032C0000000A8410000A04100009841000090418A
:1032D0000000884100007041000060410000504142
:1032E000000040410000304100002041000010413A
:1032F0000000E0400000C0400000A040000040404E
:103300002DE9F04105464FF00008FDF767F88046CB
:10331000FF2D05D12048006890F83650012608E0BE
:103320001D48006890F83600A84201D1012600E04F
:1033300000261A4850F825402CB94046FDF752F8AF
:103340004820BDE8F081012C04D14046FDF74AF841
:103350004320F6E794F838701148C05D94F83910AE
:1033600088430F49C8550846C05D30B994F83A10F3
:103370000C48007888430B49087094F8340040F0FA
:10338000080084F834004046FDF72CF8012E01D1E6
:1033900000F07CFC0020D4E7500000240416002438
:1033A000420000244100002410B50C480068007C55
:1033B00000F0040020B1094909680868FCF7F8FF2B
:1033C00007480068007C00F0040020B10449096847
:1033D0000868FCF7FAFFFDF7D1FA10BD5000002491
:1033E0005800002470B5054600261748007800B143
:1033F00070BD1648007800B1FAE71DB3FCF7EEFF88
:1034000006461348006890F838401248005D10499D
:10341000096891F8391088430E4908550846005D3F
:1034200040B90B48006890F83A100B480078884380
:10343000094908700648006805633046FCF7D2FF6A
:1034400000F024FC00BFD3E73D0000243E00002430
:1034500050000024420000244100002470B50026E2
:1034600000F072F8FCF7BAFF064631480068401CCD
:103470002F4908603046FCF7B5FF2E480078012838
:1034800053D12D48007820B1012804D0022809D159
:1034900003E001250BE0002509E001250120264974
:1034A000087004E0012500202349087000BF00BF18
:1034B00005B970BD2148046833E0FCF78FFF06466C
:1034C000206B50B3206B401E2063206B28BB94F808
:1034D000340000F0370040B114F8340F00F0C80099
:1034E000207001206070343C02E0002084F8350038
:1034F00094F8340000F0080078B93834A078104906
:10350000097808430E49087020780E49085C6178F4
:10351000084314F838190B4A505464693046FCF7D4
:1035200061FF94F836003F28C7D100BFC1E7000013
:103530006C0000244A000024600000245C00002489
:10354000410000244200002410B5FDF718FA074896
:103550000088401C05490880084600880A2803D3D3
:103560000020088000F004F810BD0000880000244E
:1035700010B503480068FFF739FB0446204610BD2C
:103580007C000024F8B54FF42071284800F04CFB73
:103590004021274800F048FB002514E0681C86B253
:1035A00005EB8500214901EBC00406EB860001EB29
:1035B000C00764202070002084F82500E7601DA06B
:1035C0002062681C85B20F2DE8D305EB85001749F2
:1035D00001EBC00464202070002084F82500E06026
:1035E00014A02062002014490860144908801020AB
:1035F000134908800D48134908600120FFF754FA69
:10360000114908600020FFF74FFA104908606A4628
:103610000FA10D480068FFF73BF96A4611A10B485E
:103620000068FFF735F900F027F8F8BDF41E002414
:10363000742300243F000000740000247200002462
:103640007000002480000024780000247C00002406
:1036500075432F4F532D494920546D724C6F636B46
:103660000000000075432F4F532D494920546D72BF
:103670005369676E616C000000B587B003200021BC
:1036800080220A4BCDE90132CDE903104FF6FD70DF
:103690000B46074A00900748FFF724FB06AA06A13D
:1036A0000020FFF73BFC07B000BD000074210024A0
:1036B000702300243537000875432F4F532D494997
:1036C00020546D720000000070B50B46032580F891
:1036D0002550012B05D1154EC56936683544456125
:1036E0000CE085692DB9114EC569366835444561D0
:1036F00004E00E4E8569366835444561057D05F068
:1037000007040B4D05EBC4010D682DB908600025B9
:10371000C56001258D8006E00A680860C2601061FE
:103720008D886D1C8D800025056170BD740000249E
:103730007423002408B500BF00BF6A4600211A4860
:103740000068FFF7DBF9FFF75FF918480068401CD5
:10375000164908600846007800F00708144800EB96
:10376000C8073C681AE0E668104960690968884241
:1037700013D1204600F01EF894F82400022804D14A
:1037800001212046FFF7A0FF02E0022084F8250077
:10379000656815B12046A168A8473446002CE2D1DF
:1037A000FFF752F9C9E700007C00002474000024F0
:1037B0007423002430B5057D05F007040D4D05EB9D
:1037C000C4031D68854205D1C168196039B100255F
:1037D0000D6104E00169C268CA6002B1116101258E
:1037E00080F825500025C56005619D886D1E9D806F
:1037F00030BD000074230024704700002DE9F04F15
:1038000005460F4690469946A87A1C490E5C05F17C
:103810000B00805D11F800B00BEBC60000F0FF0A52
:10382000174850F82A4000202434E0602760207CAC
:1038300020EA0800207484F81190207C243C00F0D9
:10384000080068B994F83A000E49097808430D4910
:1038500008700D48805D94F8391008430A4988556E
:103860002946204600F012F8206A20B12046216A3D
:1038700000F023F8E5615046BDE8F08F825500085E
:1038800004160024410000244200002410B590F8E2
:10389000382001F10B039B5C90F83940A34301F100
:1038A0000B04A35423469B5C23B98B7A90F83A40CF
:1038B000A3438B720023C36110BDF0B5024612F81A
:1038C000384F95785678383A0B4618680FE000F173
:1038D0000B073F5DB74300F10B0C0CF80470674613
:1038E0003F5D17B9877AAF4387721B1D18680028A0
:1038F000EDD1F0BD10B51B4A1268D061194A1268AB
:1039000092F8383000F10B02D25C164B1B6893F82A
:1039100039301A43134B1B6893F8384000F10B03FE
:103920001A55827A0F4B1B6893F83A301A43827209
:103930000C4A126892F838100B4A525C094B1B680B
:1039400093F839309A43084B5A541A46525C42B99C
:10395000044A126892F83A30044A12789A43034BA8
:103960001A7010BD500000244200002441000024C1
:10397000014600228A72002005E0002301F10B02BB
:103980001354421CD0B20828F7D370472DE9F041F8
:103990005021114800F048F900250DE0681C86B25E
:1039A0000D4800EB051400EB06170020207067603F
:1039B0000AA0E060681C85B2042DEFD3064800EB36
:1039C000051400202070606004A0E06002480449F3
:1039D0000860BDE8F0810000B41100243F00000041
:1039E0002C00002430B501464A6808682AB9CC6822
:1039F000606028B10025456002E0106000B14260BF
:103A00008B6800259D6230BD70B54FF4F07113488E
:103A100000F00AF9002411E0601C85B204EB4400B8
:103A20000E4901EBC00305EB450001EBC006002089
:103A300018705E600AA05861601C84B2132CEBD32E
:103A400004EB4400054901EBC003002018705860E6
:103A500003A0586108460349086070BDD40F0024D4
:103A60003F0000002800002400200B4908600B499B
:103A700008700B4908700B4908700B4908700B4916
:103A800008600B4908600B4908600B4908600B4946
:103A900008700B49087070476C0000243D0000243A
:103AA0003E0000244B0000244A000024240000248F
:103AB0004C00002438000024340000243C00002482
:103AC0006800002400210A4A1170002004E000214F
:103AD000084A1154411CC8B20828F8D30021064AEC
:103AE0001170064A1170064A1160064A116070474B
:103AF00041000024420000243F0000244000002434
:103B0000580000245000002470B54FF4F2611948A9
:103B100000F08AF84FF48071174800F085F800240F
:103B200013E0601CC5B204EB440000EBC400114973
:103B300001EBC00305EB450000EBC50001EBC0063F
:103B40005E610EA01865601CC4B2152CE9D304EBAD
:103B5000440000EBC400074901EBC003002058619A
:103B600006A018650020064908600248054908605B
:103B700070BD000004170024041600243F0000005C
:103B80005C0000245400002400B587B0032000210D
:103B900080220A4BCDE90132CDE903104FF6FF70C8
:103BA0003F23074A00900748FFF79CF806AA06A1A2
:103BB0003F20FFF7B3F907B000BD00000414002454
:103BC000001600246D3E000875432F4F532D4949C0
:103BD0002049646C6500000000B587B00320002117
:103BE00080220A4BCDE90132CDE903104FF6FE7079
:103BF0003E23074A00900748FFF774F806AA06A17B
:103C00003E20FFF78BF907B000BD0000041200242E
:103C100000140024AD3E000875432F4F532D494931
:103C2000205374617400000004E0002200F8012BAE
:103C30004A1E91B20029F8D1704700002DE9F041E9
:103C400060211048FFF7F0FF00240DE0601C86B2F1
:103C500004EB44000B4901EBC00506EB460001EB09
:103C6000C0072F60601C84B2032CEFD304EB440028
:103C7000044901EBC005002028600846024908609D
:103C8000BDE8F081941E00246400002410B50024D7
:103C9000FCF7A4FB044613480078F8B912480078F2
:103CA000E0B900F02DF811481149097850F82100C9
:103CB000104908600E4800780F49097888420DD0F5
:103CC0000C480068C06B401C0A490968C8630B486F
:103CD0000068401C09490860FCF79BFB2046FCF784
:103CE00081FB10BD3D0000243E000024041600248A
:103CF00040000024580000243F0000242400002439
:103D00000649074A1278885C0649095C034A515CF7
:103D100001EBC001044A1170704700008255000891
:103D20004100002442000024400000242DE9F84F07
:103D300005460F4690469946DDE90AAB0020009003
:103D4000FCF74CFB009042480468002C7BD01C34EC
:103D500054F8080C3E4908600098FCF743FB44F80F
:103D60001C7CA576002020766076606144F818BC43
:103D700044F810AC44F8148C0C9824F80C0C24F87B
:103D80000A9C0020E077E810207705F00700E07635
:103D9000217F01208840A077E17E01208840607764
:103DA000002020606060E060A0602062A06260622D
:103DB000E062206327A060631C3C002606E000212F
:103DC00004F1540040F82610701CC6B2002EF6D044
:103DD0002046FEF781FFFCF701FB00901E4840F8EB
:103DE00025400098FCF7FEFA2046FEF7D7FFFCF7C7
:103DF000F5FA00901948006860610020A06117483A
:103E0000006810B1154800688461144804603834B3
:103E1000A07813490978084311490870207811499E
:103E2000085C6178084314F838190E4A50540E485B
:103E30000078401C0C4908700098FCF7D3FA002069
:103E4000BDE8F88FFFE70098FCF7CCFA4220F7E7CF
:103E5000540000243F000000041600245C000024ED
:103E600041000024420000244B000024002400BF35
:103E700000BFFCF7B3FA044605480068401C04493B
:103E800008602046FCF7AEFAFFF744F8F1E70000BF
:103E90004C00002410B504480068FFF7CFF8FF205D
:103EA000FEF782FF10BD00005000002400BF00BFDD
:103EB00002E0C820FFF796FA1F4800780028F8D0E3
:103EC0001E4800686421B0FBF1F01C4908600846F8
:103ED000006828B900201A490870FF20FFF710FA7F
:103EE000FCF77CFA044615480068642148431549EC
:103EF00008602046FCF776FA00BFFCF76FFA04462C
:103F0000104800681049086000200E4908602046EB
:103F1000FCF768FA0C48006808490968B0FBF1F042
:103F2000C0F1640006490870FFF78EF800F00EF843
:103F30006420FFF757FAE0E73C0000243400002437
:103F4000300000244C000024380000247CB50025FB
:103F500014E069462846FFF77BF8064666B909482B
:103F600050F8254044B1012C06D0D4E9020100EB01
:103F70008100A0640198E064681CC5B23F2DE8D9B7
:103F80007CBD00000416002402F0010343B102F0DE
:103F900002032BB102E0491E002308C00029FAD118
:103FA0007047000010B50023234C236000BF00BF02
:103FB00000BFBFF34F8F00BF00BF00BF231F1868B3
:103FC000C0F34E3100BFC0F3C90200BF43F6E07337
:103FD00003EA41134FF0404404EA82742343174C30
:103FE000236000BF00BF131EA2F10102EED10B1E21
:103FF000A1F10101E7D100BF00BF00BFBFF34F8FA8
:1040000000BF00BF00BF0C4B703B1B6843F4803304
:10401000094C703C236000BF00BF00BFBFF34F8F4F
:1040200000BF00BF00BF00BF00BF00BFBFF36F8F66
:1040300000BF00BF00BF10BD84ED00E060EF00E0F6
:1040400000BF00BF00BFBFF34F8F00BF00BF00BF66
:1040500000BF00BF00BFBFF36F8F00BF00BF00BF36
:1040600000201449086000BF00BF00BFBFF34F8F9E
:1040700000BF00BF00BF00BF00BF00BFBFF36F8F16
:1040800000BF00BF00BF0C48006840F400300A4980
:10409000086000BF00BF00BFBFF34F8F00BF00BF6D
:1040A00000BF00BF00BF00BFBFF36F8F00BF00BFE6
:1040B00000BF704750EF00E014ED00E02DE9F04143
:1040C0009CB080460C4615461E46002737480068BF
:1040D00020F004003549086000BF002000903348FC
:1040E0000C30006840F4404030490C31086008460C
:1040F000006800F44040009000BF00BF00BF2B48A4
:104100000C30006800F40050B0F5005FF7D10120DA
:1041100001900004029000200490089002200A9070
:1041200002210B91CDF834800C940E950F9600214E
:1041300012910821119101A8FDF78EFB07460FB1DE
:1041400000BFFEE73F20149003201590002016903A
:10415000082017904020199000011A9040201890D4
:1041600050201B90022114A8FDF7E4F807460FB178
:1041700000BFFEE70E48006840F080000C49086070
:1041800000BF0B48F430006840F002000849F431E9
:1041900008600846006800F00200009000BF00BF01
:1041A000FCF780FC1CB0BDE8F08100000C48025810
:1041B0000044025810B5FCF7BDFD05480078012801
:1041C00005D1FEF7C7FBFFF749F9FEF7D5FB10BD98
:1041D0004A0000242048006840F470001E4908602E
:1041E0001E48006840F001001C49086000201B497F
:1041F00010310860194800681949084017490860DB
:104200000020164918310860091D0860091D086062
:10421000124928310860091D0860091D0860091D40
:104220000860091D0860091D0860091D0860091D56
:1042300008600A48006820F48020084908600020CF
:10424000064960310860012006490860C00602493D
:10425000803908607047000088ED00E00044025893
:104260007FEDF6EA0881005190F8341001F0010169
:1042700039B10168496821F40031826B1143026849
:10428000516090F8341001F0020139B101684968B9
:1042900021F48031C26B11430268516090F83410F0
:1042A00001F0040139B10168496821F48021026CF0
:1042B00011430268516090F8341001F0080139B1DF
:1042C0000168496821F40041426C11430268516061
:1042D00090F8341001F0100139B10168896821F4B7
:1042E0008051826C11430268916090F8341001F0A3
:1042F000200139B10168896821F40051C26C114371
:104300000268916090F8341001F0400199B10168A1
:10431000496821F48011026D114302685160016DFA
:10432000B1F5801F07D10168496821F4C001426DD1
:1043300011430268516090F8341001F0800139B1E6
:104340000168496821F40021826D114302685160BF
:10435000704738B5044600250020E067FCF7E4FC10
:1043600005462068006800F0080008280CD16FF0AE
:104370007E402B4600224FF400110090204600F0B2
:10438000A6FD08B1032038BD2068006800F00400D5
:1043900004280CD16FF07E402B4600224FF48001A0
:1043A0000090204600F093FD08B10320EBE72020A9
:1043B00084F8790084F87A0000BF002084F878003F
:1043C00000BF00BFDFE770B50546AC6B0020A4F866
:1043D0006A00A4F862002046FDF7CFFD70BD0168B9
:1043E000096821F49071026811600168896821F000
:1043F000010102689160202180F87A10704710B5A1
:1044000004462068006820F04000216808602020F1
:1044100084F879002046FEF738F8002010BD2DE919
:10442000F0410446B4F86C7094F87A00222833D135
:104430002068858CA068B0F5805F09D1206938B903
:10444000666E05EA07003080606E801C606605E0DD
:10445000F8B22840626E511C61661070B4F86A00B0
:10446000401E80B2A4F86A00A0B92068006820F459
:104470009070216808602068806820F00100216841
:104480008860202084F87A002046FDF757FF00203E
:10449000BDE8F0810020FBE72068008B40F00800B9
:1044A000216808830220F3E72DE9F04F89B0044624
:1044B00000254FF08008A946AA4600200890FA4936
:1044C0002068884201D1012000E0002000B100E016
:1044D00000BFA06AB0F1005F00D100BF2169A068F1
:1044E000084361690843E16940EA0105A06A0543A0
:1044F00020680068ED49084028432168086020686A
:10450000406820F44050E168084321684860A5698C
:10451000E5492068884201D1012000E0002008B967
:10452000206A0543A06AB0F1005F03D1D4E90B0112
:104530000843054320688068DD4908402843216816
:1045400088602068C06A20F00F00616A0843216813
:10455000C86200BFD7492068884224D1D648006885
:1045600000F03800182814D005DC48B108280AD01B
:10457000102817D10AE020280ED0282812D10EE0EA
:104580004FF001080EE04FF004080BE04FF0400838
:1045900008E04FF0080805E04FF0100802E04FF087
:1045A000200800BF17E1C549206888421DD1C248D4
:1045B000006800F00700062816D2DFE800F00306C6
:1045C000090C0F124FF000080EE04FF004080BE04A
:1045D0004FF0400808E04FF0080805E04FF01008E1
:1045E00002E04FF0200800BFF5E0B549206888429E
:1045F0001DD1B148006800F00700062816D2DFE898
:1046000000F00306090C0F124FF000080EE04FF007
:1046100004080BE04FF0400808E04FF0080805E000
:104620004FF0100802E04FF0200800BFD3E0A5498A
:10463000206888421DD1A048006800F007000628C5
:1046400016D2DFE800F00306090C0F124FF0000845
:104650000EE04FF004080BE04FF0400808E04FF088
:10466000080805E04FF0100802E04FF0200800BFF6
:10467000B1E09549206888421DD18F48006800F05C
:104680000700062816D2DFE800F00306090C0F1217
:104690004FF000080EE04FF004080BE04FF0400828
:1046A00008E04FF0080805E04FF0100802E04FF076
:1046B000200800BF8FE085492068884224D17E48C9
:1046C000006800F03800182814D005DC48B108282C
:1046D0000AD0102817D10AE020280ED0282812D19D
:1046E0000EE04FF001080EE04FF004080BE04FF031
:1046F000400808E04FF0080805E04FF0100802E01D
:104700004FF0200800BF66E07149206888421DD143
:104710006948006800F00700062816D2DFE800F0BC
:104720000306090C0F124FF000080EE04FF00408CA
:104730000BE04FF0400808E04FF0080805E04FF0AC
:10474000100802E04FF0200800BF44E061492068F3
:1047500088421DD15848006800F00700062816D28C
:10476000DFE800F00306090C0F124FF000080EE01E
:104770004FF004080BE04FF0400808E04FF0080845
:1047800005E04FF0100802E04FF0200800BF22E0E3
:104790004549206888421ED14748001D006800F046
:1047A0000700062816D2DFE800F00306090C0F12F6
:1047B0004FF002080EE04FF004080BE04FF0400805
:1047C00008E04FF0080805E04FF0100802E04FF055
:1047D000200800BF00BF00BF33492068884201D1D4
:1047E000012000E0002000285DD00025B8F1100F66
:1047F00033D009DCB8F1020F10D0B8F1040F11D09A
:10480000B8F1080F2ED117E0B8F1200F27D0B8F17A
:10481000400F0CD0B8F1800F24D124E0FCF748FB06
:10482000054623E005A8FCF759FB069D1EE002A8FB
:10483000FCF76AFC039D19E01F4854380068C0F378
:10484000401040B11C4854380068C0F3C1012248F0
:1048500020FA01F500E0204D08E0204D06E04FF47D
:10486000004503E000BF0120089000BF00BF002DFD
:104870000AD0606800EB4000A84203D860680003DB
:10488000A84202D201200890D4E2B8F1100F7CD0E7
:1048900026DCB8F1020F2DD0B8F1040F52D0B8F1D8
:1048A000080F73D19EE03FE1000C0058F369FFCF81
:1048B000FFF4FF110010014054440258004400402E
:1048C00000480040004C00400050004000140140EF
:1048D00000780040007C00400090D00300093D00BB
:1048E000B8F1200F7DD0B8F1400F54D0B8F1800F4F
:1048F000D7D109E1FCF7DCFA00270646FB49606ADC
:1049000031F810C062463B4630463946FBF7BEFDE3
:104910004FF4807600220346A3FB060701FB0671D5
:1049200003FB021361684908064671185A41CDE934
:10493000001266683246002308460199FBF7A6FD7F
:104940000546E4E005A8FCF7C9FADDF818C0E74918
:10495000606A31F810B05A46002360461946FBF7EA
:1049600095FD4FF4807C0022A0FB0C3B01FB0CB1B9
:1049700000FB0210616849085E1840EB0201D4F8A0
:1049800004C062460023304601E079E0BBE0FBF75B
:104990007DFD0546BBE002A8FCF7B6FBDDF80CC0C8
:1049A000D249606A31F810B05A4600236046194671
:1049B000FBF76CFD4FF4807C0022A0FB0C3B01FB5D
:1049C0000CB100FB0210616849085E1840EB02015F
:1049D000D4F804C0624600233046FBF757FD054675
:1049E00095E06EE0C2480068C0F3401038B3C0489C
:1049F0000068C0F3C101BF4820FA01FCBB49606AEE
:104A000031F810B05A46002360461946FBF73EFDC8
:104A10004FF4807C0022A0FB0C3B01FB0CB100FB9F
:104A20000210616849085E1840EB0201D4F804C026
:104A3000624600233046FBF729FD05461FE0AB49DF
:104A4000606A31F810C062460023AA481946FBF795
:104A50001DFD4FF4807C0022A0FB0C3B01FB0CB140
:104A600000FB0210616849085E1840EB0201D4F8AF
:104A700004C0624600233046FBF708FD054646E0C9
:104A80009A49606A31F810C0624600239A48194674
:104A9000FBF7FCFC4FF4807C0022A0FB0C3B01FBED
:104AA0000CB100FB0210616849085E1840EB02017E
:104AB000D4F804C0624600233046FBF7E7FC054605
:104AC00025E08A49606A31F810C0624600234FF43D
:104AD00000401946FBF7DAFC4FF4807C0022A0FB73
:104AE0000C3B01FB0CB100FB0210616849085E1829
:104AF00040EB0201D4F804C0624600233046FBF7C5
:104B0000C5FC054603E000BF0120089000BF00BFC0
:104B1000B5F5407F05D3B5F5801F02D22068C5608A
:104B200088E10120089085E1E069B0F5004F7CD173
:104B3000B8F1100F7AD00CDCB8F1000F13D0B8F137
:104B4000010F21D0B8F1040F2FD0B8F1080F6ED1AA
:104B500051E0B8F1200F6BD0B8F1400F38D0B8F168
:104B6000800F64D197E0FCF729FD604A616A32F852
:104B70001110B0FBF1F04000616800EB5100B0FB98
:104B8000F1F01FFA80FA89E0FCF72EFD574A616ABE
:104B900032F81110B0FBF1F04000616800EB5100F9
:104BA000B0FBF1F01FFA80FA78E005A8FCF796F95F
:104BB00006994E4A606A32F81000B1FBF0F04000EE
:104BC000616800EB5100B0FBF1F01FFA80FA65E07C
:104BD00002A8FCF799FA0399444A606A32F8100077
:104BE000B1FBF0F04000616800EB5100B0FBF1F068
:104BF0001FFA80FA52E03E480068C0F34010C0B18E
:104C00003B480068C0F3C1013A48C840374A616A6E
:104C100032F81110B0FBF1F04000616800EB510078
:104C2000B0FBF1F01FFA80FA12E044E011E031E04D
:104C30001FE02E49606A31F810002E49B1FBF0F0F8
:104C40004000616800EB5100B0FBF1F01FFA80FA00
:104C500024E02649606A31F810002749B1FBF0F0E2
:104C60004000616800EB5100B0FBF1F01FFA80FAE0
:104C700014E01E49606A31F810004FF40041B1FBA6
:104C8000F0F04000616800EB5100B0FBF1F01FFA5A
:104C900080FA03E000BF0120089000BF00BF4FF67C
:104CA000F0700AEA0009CAF3420049EA00092068E4
:104CB000C0F80C90BEE0B8F1100F7CD00CDCB8F15D
:104CC000000F1BD0B8F1010F29D0B8F1040F37D075
:104CD000B8F1080F70D159E0B8F1200F6DD0B8F1DC
:104CE000400F40D0B8F1800F66D19FE052550008C8
:104CF000004402580090D00300093D00FCF75EFC20
:104D00004E4A616A32F81110B0FBF1F0616800EBB5
:104D10005100B0FBF1F080B22168C86089E0FCF777
:104D200063FC464A616A32F81110B0FBF1F0616829
:104D300000EB5100B0FBF1F080B22168C86078E070
:104D400005A8FCF7CBF806993C4A606A32F81000D7
:104D5000B1FBF0F0616800EB5100B0FBF1F080B204
:104D60002168C86065E002A8FCF7CEF90399334AD0
:104D7000606A32F81000B1FBF0F0616800EB51009E
:104D8000B0FBF1F080B22168C86052E02C480068A6
:104D9000C0F34010C0B12A480068C0F3C1012948DF
:104DA000C840264A616A32F81110B0FBF1F0616820
:104DB00000EB510002E017E037E025E0B0FBF1F036
:104DC00080B22168C8600EE01C49606A31F81000AA
:104DD0001C49B1FBF0F0616800EB5100B0FBF1F051
:104DE00080B22168C86024E01449606A31F810007C
:104DF0001549B1FBF0F0616800EB5100B0FBF1F038
:104E000080B22168C86014E00C49606A31F8100073
:104E10004FF40041B1FBF0F0616800EB5100B0FBD2
:104E2000F1F080B22168C86003E000BF0120089063
:104E300000BF00BF089809B0BDE8F08F52550008C8
:104E4000004402580090D00300093D00014691F84B
:104E50007900212839D1B1F86200C8B90868006822
:104E600000F0005030B10868806820F400000B6842
:104E7000986005E00868006820F080000B68186002
:104E80000868006840F040000B6818600020704718
:104E90008868B0F5805F0BD1086948B9CA6D108881
:104EA000C0F308000B681885C86D801CC86505E054
:104EB000CB6D581CC86518780B681885B1F862006E
:104EC000401EA1F862000020E1E70220DFE72DE9A3
:104ED000F04104460D4617469846069E21E0701C98
:104EE000F8B12EB1FBF720FFA0EB0800B04218D9B3
:104EF0002068006820F4D07021680860206880680D
:104F000020F0010021688860202084F8790084F86E
:104F10007A0000BF002084F8780000BF0320BDE8BD
:104F2000F0812068C0692840A84201D1012000E03A
:104F30000020B842D3D00020F1E7000070B5002473
:104F4000114DFDF707FD1148FDF722F800BF03E002
:104F5000641CAC4200D904E00C48FDF70FF820288F
:104F6000F6D100BF002403E0641CAC4200D906E087
:104F7000012207490548FDF771F90028F4D100BF67
:104F8000FDF7FAFC70BD0000FFFF0100540F002484
:104F90001600002400BFFEE702480068C0F30220AC
:104FA000704700000CED00E010B5002804DB0A0794
:104FB000130E054A135406E00A07140E034A00F0C4
:104FC0000F031B1FD45410BD00E400E018ED00E0F7
:104FD00000BF704770B504460420FCF79FFF0C48E3
:104FE000046025464FF47A70454301200949088042
:104FF0004FF0E020006940F002004FF0E02108612E
:1050000008464561006940F00100086170BD00007C
:10501000080000240C00002470B504460F480078F6
:10502000A0B10F48007888B90E480088844206DB9A
:105030000C48008894FBF0F5284600F01DF809485C
:10504000008894FBF0F100FB114084B24FF47A71B8
:1050500004FB01F000F016F870BD00004A000024C7
:105060003D0000240C00002410B5FDF7CDFC10BD60
:1050700010B5FDF7E9FC10BD10B504462046FEF75B
:10508000B1F910BD2DE9F047074600264FF0E020AA
:10509000D0F814901048006807FB00F8FFF7E4FF11
:1050A0004FF0E020856911E04FF0E0208469AC42C8
:1050B0000CD0AC4202D2281B064403E0A9EB04004A
:1050C000284406442546464500D300E0ECE700BFEF
:1050D000FFF7CEFFBDE8F0870800002400BF054AB7
:1050E000D26902F04002002AF9D0C2B2014B1A85FF
:1050F000704700000010014010B504460520FDF780
:1051000045FF10BD13E0601CC4B20A20FFF784FF06
:10511000082C04D1012202210548FBF7FFFD642C75
:1051200005D10024002202210148FBF7F7FDEAE740
:105130000004025800B585B0FBF728FCFBF706FE1B
:10514000042302220521A020FEF7B8FF4FF4C87007
:10515000FFF740FF4FF4E13000F092F9FDF768FBF4
:10516000FDF712FBFBF789FBFDF7BEFB07200021D3
:105170008022084BCDE90132CDE903100A20034615
:10518000054A00900548FDF7ADFDFDF75BFD0020E9
:1051900005B000BD8C0000248802002435530008AF
:1051A0002248C069C0F3003121A0FBF7E7F93BE0DA
:1051B0000AE024A0FBF7E2F94FF47A70FFF72CFF26
:1051C00002212848FBF7A6FDFBF740FB0028F0D1A1
:1051D0002548008800F40040002821D01348C06909
:1051E000C0F3003112A0FBF7C9F910221F490020BB
:1051F000FBF784FB1EA0FBF7C1F9002408E01B4865
:10520000015D20A0FBF7BAF9002018490855641C7D
:10521000102CF4D31CA0FBF7B1F90620FDF7B6FE65
:105220004FF47A70FFF7F8FEC2E70000001001406B
:1052300055534152545F4953525F454F42463D25B5
:10524000580A000052454345495645203234433000
:105250003220436865636B204661696C6564210A8E
:105260000D00000000040258140000248C0E0024DD
:10527000D0B4C8EB454550524F4D20323443303204
:105280003A000000256300000A0000002AE0062022
:10529000FEF736F80AE014A0FBF770F94FF47A70C5
:1052A000FFF7BAFE02211648FBF734FDFBF7CEFAF2
:1052B0000028F0D110221349FBF7E3FA12A0FBF704
:1052C0005DF94FF47A7310220E491648FDF77AF80B
:1052D00015A0FBF753F90020144908804FF47A70A9
:1052E000FFF79AFED3E700003234433032204368A0
:1052F00065636B204661696C6564210A0D000000DE
:1053000000040258F2540008454550524F4D2032D7
:1053100034433032D6D0B5C4CAFDBEDDCEAA3A0A77
:1053200000000000540F00240A0D000014000024A7
:105330007047704730B585B00446002500BF3AA0DD
:10534000FBF71CF9FDF7A2FCFBF748F80546072020
:1053500000218022384BCDE90310CDE901320090C5
:105360000346364A3648FDF7BDFC0720002180225F
:10537000344BCDE90132CDE9031009200346324A0E
:1053800000903248FDF7AEFC072000218022304B10
:10539000CDE90132CDE90310052003462D4A0090E6
:1053A0002D48FDF79FFC0720002180222B4BCDE9E3
:1053B0000132CDE9031006200346294A009029480E
:1053C000FDF790FC0520FDF79BFF0620FDF798FFF9
:1053D000072000218022244BCDE90310CDE90132C2
:1053E00000900346214A2248FDF77CFC072000215B
:1053F0008022204BCDE90132CDE90310082003467D
:105400001D4A00901D48FDF76DFC0720FDF778FF51
:105410000820FDF775FF2846FAF7E4FF0A20FDF79C
:105420006FFF05B030BD00007461736B2073746151
:10543000727465640A0D00008C0200248804002444
:10544000055100088C04002488060024F950000847
:105450008C080024880A0024A15100088C0600242E
:10546000880800248D5200088C0C0024880E00242B
:10547000315300088C0A0024880C002433530008A0
:1054800010B5044609480A490860084644600021EE
:105490008160C160016181610C214161FCF756FEB0
:1054A000012204490248FCF7D9FE10BD001001405A
:1054B000540F0024160000244FF04070E1EE100A53
:1054C0007047010002000400060008000A000C00FA
:1054D00010002000400080000001010002000400D4
:1054E000060008000A000C001000200040008000A8
:1054F00000010000000000000000000000000000AB
:10550000000000000000000000000000000000009B
:105510000000010002000400060008000A000C0060
:105520001000200040008000000101000200040083
:10553000060008000A000C00100020004000800057
:105540000001000000000102030401020304060739
:105550000809010002000400060008000A000C000F
:105560001000200040008000000101000200040043
:10557000060008000A000C00100020004000800017
:105580000001000001000200010003000100020010
:1055900001000400010002000100030001000200FC
:1055A00001000500010002000100030001000200EB
:1055B00001000400010002000100030001000200DC
:1055C00001000600010002000100030001000200CA
:1055D00001000400010002000100030001000200BC
:1055E00001000500010002000100030001000200AB
:1055F000010004000100020001000300010002009C
:105600000100070001000200010003000100020088
:10561000010004000100020001000300010002007B
:10562000010005000100020001000300010002006A
:10563000010004000100020001000300010002005B
:105640000100060001000200010003000100020049
:10565000010004000100020001000300010002003B
:10566000010005000100020001000300010002002A
:10567000010004000100020001000300010002001B
:105680000100303132333435363738394142434402
:1056900045464030580030313233343536373839AA
:1056A000616263646566403078000000CC56000893
:1056B000000000248C000000D402000858570008A5
:1056C0008C0000248C310000F00200080090D00310
:1056D0000090D00300000000000000000000000067
:1056E00000000000000000001000000001000000A9
:1056F00000000000000000000000000000000000AA
:105700000000000000000000000000000000000099
:105710000000000000000000000000000000000089
:105720000000000000000000000000000000000079
:105730000000000000000000000000000000000069
:105740000000000000000000000000000000000059
:08575000000000000000000051
:040000050800029954
:00000001FF
